{"contracts/CoinRegistry.sol":{"CoinRegistry":{"abi":[{"inputs":[{"internalType":"address","name":"_platformWallet","type":"address"}],"stateMutability":"nonpayable","type":"constructor"},{"anonymous":false,"inputs":[{"indexed":false,"internalType":"uint256","name":"count","type":"uint256"},{"indexed":false,"internalType":"uint256","name":"timestamp","type":"uint256"}],"name":"BatchRegistered","type":"event"},{"anonymous":false,"inputs":[{"indexed":true,"internalType":"address","name":"creator","type":"address"},{"indexed":true,"internalType":"address","name":"zoraContract","type":"address"},{"indexed":false,"internalType":"uint256","name":"timestamp","type":"uint256"},{"indexed":false,"internalType":"bytes32","name":"txHash","type":"bytes32"}],"name":"CoinRegistered","type":"event"},{"anonymous":false,"inputs":[{"indexed":false,"internalType":"address","name":"account","type":"address"}],"name":"Paused","type":"event"},{"anonymous":false,"inputs":[{"indexed":true,"internalType":"address","name":"oldWallet","type":"address"},{"indexed":true,"internalType":"address","name":"newWallet","type":"address"}],"name":"PlatformWalletUpdated","type":"event"},{"anonymous":false,"inputs":[{"indexed":false,"internalType":"address","name":"account","type":"address"}],"name":"Unpaused","type":"event"},{"inputs":[{"internalType":"address[]","name":"creators","type":"address[]"},{"internalType":"address[]","name":"zoraContracts","type":"address[]"},{"internalType":"bytes32[]","name":"txHashes","type":"bytes32[]"}],"name":"batchRegister","outputs":[],"stateMutability":"nonpayable","type":"function"},{"inputs":[{"internalType":"address","name":"zoraContract","type":"address"}],"name":"getRegistration","outputs":[{"components":[{"internalType":"address","name":"creator","type":"address"},{"internalType":"address","name":"zoraContract","type":"address"},{"internalType":"uint256","name":"timestamp","type":"uint256"},{"internalType":"bytes32","name":"txHash","type":"bytes32"}],"internalType":"struct CoinRegistry.CoinRegistration","name":"","type":"tuple"}],"stateMutability":"view","type":"function"},{"inputs":[],"name":"getTotalCreators","outputs":[{"internalType":"uint256","name":"","type":"uint256"}],"stateMutability":"view","type":"function"},{"inputs":[{"internalType":"address","name":"creator","type":"address"}],"name":"getUserCoinCount","outputs":[{"internalType":"uint256","name":"","type":"uint256"}],"stateMutability":"view","type":"function"},{"inputs":[{"internalType":"address","name":"creator","type":"address"}],"name":"getUserCoins","outputs":[{"internalType":"address[]","name":"","type":"address[]"}],"stateMutability":"view","type":"function"},{"inputs":[{"internalType":"address","name":"zoraContract","type":"address"}],"name":"isRegistered","outputs":[{"internalType":"bool","name":"","type":"bool"}],"stateMutability":"view","type":"function"},{"inputs":[],"name":"pause","outputs":[],"stateMutability":"nonpayable","type":"function"},{"inputs":[],"name":"paused","outputs":[{"internalType":"bool","name":"","type":"bool"}],"stateMutability":"view","type":"function"},{"inputs":[],"name":"platformWallet","outputs":[{"internalType":"address","name":"","type":"address"}],"stateMutability":"view","type":"function"},{"inputs":[{"internalType":"address","name":"creator","type":"address"},{"internalType":"address","name":"zoraContract","type":"address"},{"internalType":"bytes32","name":"txHash","type":"bytes32"}],"name":"register","outputs":[],"stateMutability":"nonpayable","type":"function"},{"inputs":[{"internalType":"address","name":"","type":"address"}],"name":"registry","outputs":[{"internalType":"address","name":"creator","type":"address"},{"internalType":"address","name":"zoraContract","type":"address"},{"internalType":"uint256","name":"timestamp","type":"uint256"},{"internalType":"bytes32","name":"txHash","type":"bytes32"}],"stateMutability":"view","type":"function"},{"inputs":[],"name":"totalCoins","outputs":[{"internalType":"uint256","name":"","type":"uint256"}],"stateMutability":"view","type":"function"},{"inputs":[],"name":"unpause","outputs":[],"stateMutability":"nonpayable","type":"function"},{"inputs":[{"internalType":"address","name":"newWallet","type":"address"}],"name":"updatePlatformWallet","outputs":[],"stateMutability":"nonpayable","type":"function"},{"inputs":[{"internalType":"address","name":"","type":"address"},{"internalType":"uint256","name":"","type":"uint256"}],"name":"userCoins","outputs":[{"internalType":"address","name":"","type":"address"}],"stateMutability":"view","type":"function"}],"evm":{"bytecode":{"linkReferences":{},"object":"6080604052348015600e575f5ffd5b50604051611045380380611045833981016040819052602b9160a7565b6001600160a01b03811660845760405162461bcd60e51b815260206004820152601760248201527f496e76616c696420706c6174666f726d2077616c6c6574000000000000000000604482015260640160405180910390fd5b5f80546001600160a01b0319166001600160a01b039290921691909117905560d2565b5f6020828403121560b6575f5ffd5b81516001600160a01b038116811460cb575f5ffd5b9392505050565b610f66806100df5f395ff3fe608060405234801561000f575f5ffd5b50600436106100f0575f3560e01c80637bd8f49c11610093578063be1e8a2a11610063578063be1e8a2a146102e7578063c3c5a54714610312578063e1a864a41461033f578063fa2af9da14610352575f5ffd5b80637bd8f49c146102845780638456cb59146102a457806387555c9f146102ac578063ada4ef30146102d4575f5ffd5b80633f4ba83a116100ce5780633f4ba83a146101825780635c975abb1461018c57806369b15fce146101af57806372731062146101c2575f5ffd5b8063038defd7146100f457806331e8e39d1461016757806332454dbb14610179575b5f5ffd5b610137610102366004610d17565b600160208190525f918252604090912080549181015460028201546003909201546001600160a01b0393841693909116919084565b604080516001600160a01b0395861681529490931660208501529183015260608201526080015b60405180910390f35b6003545b60405190815260200161015e565b61016b60035481565b61018a610364565b005b5f5461019f90600160a01b900460ff1681565b604051901515815260200161015e565b61018a6101bd366004610d37565b6103d8565b6102436101d0366004610d17565b604080516080810182525f808252602082018190529181018290526060810191909152506001600160a01b039081165f9081526001602081815260409283902083516080810185528154861681529281015490941690820152600283015491810191909152600390910154606082015290565b60405161015e919081516001600160a01b03908116825260208084015190911690820152604080830151908201526060918201519181019190915260800190565b610297610292366004610d17565b6106d5565b60405161015e9190610d70565b61018a610748565b61016b6102ba366004610d17565b6001600160a01b03165f9081526002602052604090205490565b61018a6102e2366004610d17565b6107b3565b6102fa6102f5366004610dbb565b610876565b6040516001600160a01b03909116815260200161015e565b61019f610320366004610d17565b6001600160a01b039081165f9081526001602052604090205416151590565b61018a61034d366004610e2b565b6108aa565b5f546102fa906001600160a01b031681565b5f546001600160a01b031633146103965760405162461bcd60e51b815260040161038d90610eca565b60405180910390fd5b5f805460ff60a01b191690556040513381527f5db9ee0a495bf2e6ff9c91a7834c1ba4fdd244a5e8aa4e537bd38aeae4b073aa906020015b60405180910390a1565b5f546001600160a01b031633146104015760405162461bcd60e51b815260040161038d90610eca565b5f54600160a01b900460ff161561044f5760405162461bcd60e51b815260206004820152601260248201527110dbdb9d1c9858dd081a5cc81c185d5cd95960721b604482015260640161038d565b6001600160a01b0383166104a55760405162461bcd60e51b815260206004820152601760248201527f496e76616c69642063726561746f722061646472657373000000000000000000604482015260640161038d565b6001600160a01b0382166104fb5760405162461bcd60e51b815260206004820152601860248201527f496e76616c696420636f6e747261637420616464726573730000000000000000604482015260640161038d565b813b61053a5760405162461bcd60e51b815260206004820152600e60248201526d139bdd08184818dbdb9d1c9858dd60921b604482015260640161038d565b6001600160a01b038281165f9081526001602052604090205416156105965760405162461bcd60e51b8152602060048201526012602482015271105b1c9958591e481c9959da5cdd195c995960721b604482015260640161038d565b604080516080810182526001600160a01b03808616808352858216602080850182815242868801908152606087018981525f85815260018086528a822099518a54908a166001600160a01b0319918216178b5594518a8201805491909a169086161790985591516002808a019190915590516003909801979097558481529582528686208054958601815586528186209094018054909416909117909255825260049052205460ff16610666576001600160a01b0383165f908152600460205260409020805460ff191660011790555b60038054905f61067583610ef8565b9190505550816001600160a01b0316836001600160a01b03167f78824ccfe90dc08464c188dacb5df6e135f9dbfe4c057419de87ae6359bceb6542846040516106c8929190918252602082015260400190565b60405180910390a3505050565b6001600160a01b0381165f9081526002602090815260409182902080548351818402810184019094528084526060939283018282801561073c57602002820191905f5260205f20905b81546001600160a01b0316815260019091019060200180831161071e575b50505050509050919050565b5f546001600160a01b031633146107715760405162461bcd60e51b815260040161038d90610eca565b5f805460ff60a01b1916600160a01b1790556040513381527f62e78cea01bee320cd4e420270b5ea74000d11b0c9f74754ebdbfc544b05a258906020016103ce565b5f546001600160a01b031633146107dc5760405162461bcd60e51b815260040161038d90610eca565b6001600160a01b0381166108275760405162461bcd60e51b8152602060048201526012602482015271125b9d985b1a59081b995dc81dd85b1b195d60721b604482015260640161038d565b5f80546001600160a01b038381166001600160a01b0319831681178455604051919092169283917ff84f6b525c89a18c80bbbc0c62a7eb5390956d6b8432ab067b49963a98f8c38f9190a35050565b6002602052815f5260405f20818154811061088f575f80fd5b5f918252602090912001546001600160a01b03169150829050565b5f546001600160a01b031633146108d35760405162461bcd60e51b815260040161038d90610eca565b5f54600160a01b900460ff16156109215760405162461bcd60e51b815260206004820152601260248201527110dbdb9d1c9858dd081a5cc81c185d5cd95960721b604482015260640161038d565b848314801561092f57508481145b6109735760405162461bcd60e51b8152602060048201526015602482015274082e4e4c2f240d8cadccee8d040dad2e6dac2e8c6d605b1b604482015260640161038d565b846109af5760405162461bcd60e51b815260206004820152600c60248201526b456d7074792061727261797360a01b604482015260640161038d565b60648511156109f25760405162461bcd60e51b815260206004820152600f60248201526e426174636820746f6f206c6172676560881b604482015260640161038d565b5f805b86811015610cba575f888883818110610a1057610a10610f1c565b9050602002016020810190610a259190610d17565b90505f878784818110610a3a57610a3a610f1c565b9050602002016020810190610a4f9190610d17565b90505f868685818110610a6457610a64610f1c565b60200291909101359150506001600160a01b038316610ab75760405162461bcd60e51b815260206004820152600f60248201526e24b73b30b634b21031b932b0ba37b960891b604482015260640161038d565b6001600160a01b038216610b005760405162461bcd60e51b815260206004820152601060248201526f125b9d985b1a590818dbdb9d1c9858dd60821b604482015260640161038d565b813b610b3f5760405162461bcd60e51b815260206004820152600e60248201526d139bdd08184818dbdb9d1c9858dd60921b604482015260640161038d565b6001600160a01b038281165f908152600160205260409020541615610b6657505050610cb2565b604080516080810182526001600160a01b03808616808352858216602080850182815242868801908152606087018981525f85815260018086528a822099518a54908a166001600160a01b0319918216178b5594518a8201805491909a169086161790985591516002808a019190915590516003909801979097558481529582528686208054958601815586528186209094018054909416909117909255825260049052205460ff16610c36576001600160a01b0383165f908152600460205260409020805460ff191660011790555b60038054905f610c4583610ef8565b91905055508480610c5590610ef8565b955050816001600160a01b0316836001600160a01b03167f78824ccfe90dc08464c188dacb5df6e135f9dbfe4c057419de87ae6359bceb654284604051610ca6929190918252602082015260400190565b60405180910390a35050505b6001016109f5565b50604080518281524260208201527f5147e56f82dd95b39d986545d47fcc2f02ebe9938671c93e73ec1f28404cef7d910160405180910390a150505050505050565b80356001600160a01b0381168114610d12575f5ffd5b919050565b5f60208284031215610d27575f5ffd5b610d3082610cfc565b9392505050565b5f5f5f60608486031215610d49575f5ffd5b610d5284610cfc565b9250610d6060208501610cfc565b9150604084013590509250925092565b602080825282518282018190525f918401906040840190835b81811015610db05783516001600160a01b0316835260209384019390920191600101610d89565b509095945050505050565b5f5f60408385031215610dcc575f5ffd5b610dd583610cfc565b946020939093013593505050565b5f5f83601f840112610df3575f5ffd5b50813567ffffffffffffffff811115610e0a575f5ffd5b6020830191508360208260051b8501011115610e24575f5ffd5b9250929050565b5f5f5f5f5f5f60608789031215610e40575f5ffd5b863567ffffffffffffffff811115610e56575f5ffd5b610e6289828a01610de3565b909750955050602087013567ffffffffffffffff811115610e81575f5ffd5b610e8d89828a01610de3565b909550935050604087013567ffffffffffffffff811115610eac575f5ffd5b610eb889828a01610de3565b979a9699509497509295939492505050565b60208082526014908201527313db9b1e481c1b185d199bdc9b481dd85b1b195d60621b604082015260600190565b5f60018201610f1557634e487b7160e01b5f52601160045260245ffd5b5060010190565b634e487b7160e01b5f52603260045260245ffdfea264697066735822122009286794a7abd990fd8954194e11b5e23a5726dac0865a650c67b9dd5568329764736f6c634300081e0033","opcodes":"PUSH1 0x80 PUSH1 0x40 MSTORE CALLVALUE DUP1 ISZERO PUSH1 0xE JUMPI PUSH0 PUSH0 REVERT JUMPDEST POP PUSH1 0x40 MLOAD PUSH2 0x1045 CODESIZE SUB DUP1 PUSH2 0x1045 DUP4 CODECOPY DUP2 ADD PUSH1 0x40 DUP2 SWAP1 MSTORE PUSH1 0x2B SWAP2 PUSH1 0xA7 JUMP JUMPDEST PUSH1 0x1 PUSH1 0x1 PUSH1 0xA0 SHL SUB DUP2 AND PUSH1 0x84 JUMPI PUSH1 0x40 MLOAD PUSH3 0x461BCD PUSH1 0xE5 SHL DUP2 MSTORE PUSH1 0x20 PUSH1 0x4 DUP3 ADD MSTORE PUSH1 0x17 PUSH1 0x24 DUP3 ADD MSTORE PUSH32 0x496E76616C696420706C6174666F726D2077616C6C6574000000000000000000 PUSH1 0x44 DUP3 ADD MSTORE PUSH1 0x64 ADD PUSH1 0x40 MLOAD DUP1 SWAP2 SUB SWAP1 REVERT JUMPDEST PUSH0 DUP1 SLOAD PUSH1 0x1 PUSH1 0x1 PUSH1 0xA0 SHL SUB NOT AND PUSH1 0x1 PUSH1 0x1 PUSH1 0xA0 SHL SUB SWAP3 SWAP1 SWAP3 AND SWAP2 SWAP1 SWAP2 OR SWAP1 SSTORE PUSH1 0xD2 JUMP JUMPDEST PUSH0 PUSH1 0x20 DUP3 DUP5 SUB SLT ISZERO PUSH1 0xB6 JUMPI PUSH0 PUSH0 REVERT JUMPDEST DUP2 MLOAD PUSH1 0x1 PUSH1 0x1 PUSH1 0xA0 SHL SUB DUP2 AND DUP2 EQ PUSH1 0xCB JUMPI PUSH0 PUSH0 REVERT JUMPDEST SWAP4 SWAP3 POP POP POP JUMP JUMPDEST PUSH2 0xF66 DUP1 PUSH2 0xDF PUSH0 CODECOPY PUSH0 RETURN INVALID PUSH1 0x80 PUSH1 0x40 MSTORE CALLVALUE DUP1 ISZERO PUSH2 0xF JUMPI PUSH0 PUSH0 REVERT JUMPDEST POP PUSH1 0x4 CALLDATASIZE LT PUSH2 0xF0 JUMPI PUSH0 CALLDATALOAD PUSH1 0xE0 SHR DUP1 PUSH4 0x7BD8F49C GT PUSH2 0x93 JUMPI DUP1 PUSH4 0xBE1E8A2A GT PUSH2 0x63 JUMPI DUP1 PUSH4 0xBE1E8A2A EQ PUSH2 0x2E7 JUMPI DUP1 PUSH4 0xC3C5A547 EQ PUSH2 0x312 JUMPI DUP1 PUSH4 0xE1A864A4 EQ PUSH2 0x33F JUMPI DUP1 PUSH4 0xFA2AF9DA EQ PUSH2 0x352 JUMPI PUSH0 PUSH0 REVERT JUMPDEST DUP1 PUSH4 0x7BD8F49C EQ PUSH2 0x284 JUMPI DUP1 PUSH4 0x8456CB59 EQ PUSH2 0x2A4 JUMPI DUP1 PUSH4 0x87555C9F EQ PUSH2 0x2AC JUMPI DUP1 PUSH4 0xADA4EF30 EQ PUSH2 0x2D4 JUMPI PUSH0 PUSH0 REVERT JUMPDEST DUP1 PUSH4 0x3F4BA83A GT PUSH2 0xCE JUMPI DUP1 PUSH4 0x3F4BA83A EQ PUSH2 0x182 JUMPI DUP1 PUSH4 0x5C975ABB EQ PUSH2 0x18C JUMPI DUP1 PUSH4 0x69B15FCE EQ PUSH2 0x1AF JUMPI DUP1 PUSH4 0x72731062 EQ PUSH2 0x1C2 JUMPI PUSH0 PUSH0 REVERT JUMPDEST DUP1 PUSH4 0x38DEFD7 EQ PUSH2 0xF4 JUMPI DUP1 PUSH4 0x31E8E39D EQ PUSH2 0x167 JUMPI DUP1 PUSH4 0x32454DBB EQ PUSH2 0x179 JUMPI JUMPDEST PUSH0 PUSH0 REVERT JUMPDEST PUSH2 0x137 PUSH2 0x102 CALLDATASIZE PUSH1 0x4 PUSH2 0xD17 JUMP JUMPDEST PUSH1 0x1 PUSH1 0x20 DUP2 SWAP1 MSTORE PUSH0 SWAP2 DUP3 MSTORE PUSH1 0x40 SWAP1 SWAP2 KECCAK256 DUP1 SLOAD SWAP2 DUP2 ADD SLOAD PUSH1 0x2 DUP3 ADD SLOAD PUSH1 0x3 SWAP1 SWAP3 ADD SLOAD PUSH1 0x1 PUSH1 0x1 PUSH1 0xA0 SHL SUB SWAP4 DUP5 AND SWAP4 SWAP1 SWAP2 AND SWAP2 SWAP1 DUP5 JUMP JUMPDEST PUSH1 0x40 DUP1 MLOAD PUSH1 0x1 PUSH1 0x1 PUSH1 0xA0 SHL SUB SWAP6 DUP7 AND DUP2 MSTORE SWAP5 SWAP1 SWAP4 AND PUSH1 0x20 DUP6 ADD MSTORE SWAP2 DUP4 ADD MSTORE PUSH1 0x60 DUP3 ADD MSTORE PUSH1 0x80 ADD JUMPDEST PUSH1 0x40 MLOAD DUP1 SWAP2 SUB SWAP1 RETURN JUMPDEST PUSH1 0x3 SLOAD JUMPDEST PUSH1 0x40 MLOAD SWAP1 DUP2 MSTORE PUSH1 0x20 ADD PUSH2 0x15E JUMP JUMPDEST PUSH2 0x16B PUSH1 0x3 SLOAD DUP2 JUMP JUMPDEST PUSH2 0x18A PUSH2 0x364 JUMP JUMPDEST STOP JUMPDEST PUSH0 SLOAD PUSH2 0x19F SWAP1 PUSH1 0x1 PUSH1 0xA0 SHL SWAP1 DIV PUSH1 0xFF AND DUP2 JUMP JUMPDEST PUSH1 0x40 MLOAD SWAP1 ISZERO ISZERO DUP2 MSTORE PUSH1 0x20 ADD PUSH2 0x15E JUMP JUMPDEST PUSH2 0x18A PUSH2 0x1BD CALLDATASIZE PUSH1 0x4 PUSH2 0xD37 JUMP JUMPDEST PUSH2 0x3D8 JUMP JUMPDEST PUSH2 0x243 PUSH2 0x1D0 CALLDATASIZE PUSH1 0x4 PUSH2 0xD17 JUMP JUMPDEST PUSH1 0x40 DUP1 MLOAD PUSH1 0x80 DUP2 ADD DUP3 MSTORE PUSH0 DUP1 DUP3 MSTORE PUSH1 0x20 DUP3 ADD DUP2 SWAP1 MSTORE SWAP2 DUP2 ADD DUP3 SWAP1 MSTORE PUSH1 0x60 DUP2 ADD SWAP2 SWAP1 SWAP2 MSTORE POP PUSH1 0x1 PUSH1 0x1 PUSH1 0xA0 SHL SUB SWAP1 DUP2 AND PUSH0 SWAP1 DUP2 MSTORE PUSH1 0x1 PUSH1 0x20 DUP2 DUP2 MSTORE PUSH1 0x40 SWAP3 DUP4 SWAP1 KECCAK256 DUP4 MLOAD PUSH1 0x80 DUP2 ADD DUP6 MSTORE DUP2 SLOAD DUP7 AND DUP2 MSTORE SWAP3 DUP2 ADD SLOAD SWAP1 SWAP5 AND SWAP1 DUP3 ADD MSTORE PUSH1 0x2 DUP4 ADD SLOAD SWAP2 DUP2 ADD SWAP2 SWAP1 SWAP2 MSTORE PUSH1 0x3 SWAP1 SWAP2 ADD SLOAD PUSH1 0x60 DUP3 ADD MSTORE SWAP1 JUMP JUMPDEST PUSH1 0x40 MLOAD PUSH2 0x15E SWAP2 SWAP1 DUP2 MLOAD PUSH1 0x1 PUSH1 0x1 PUSH1 0xA0 SHL SUB SWAP1 DUP2 AND DUP3 MSTORE PUSH1 0x20 DUP1 DUP5 ADD MLOAD SWAP1 SWAP2 AND SWAP1 DUP3 ADD MSTORE PUSH1 0x40 DUP1 DUP4 ADD MLOAD SWAP1 DUP3 ADD MSTORE PUSH1 0x60 SWAP2 DUP3 ADD MLOAD SWAP2 DUP2 ADD SWAP2 SWAP1 SWAP2 MSTORE PUSH1 0x80 ADD SWAP1 JUMP JUMPDEST PUSH2 0x297 PUSH2 0x292 CALLDATASIZE PUSH1 0x4 PUSH2 0xD17 JUMP JUMPDEST PUSH2 0x6D5 JUMP JUMPDEST PUSH1 0x40 MLOAD PUSH2 0x15E SWAP2 SWAP1 PUSH2 0xD70 JUMP JUMPDEST PUSH2 0x18A PUSH2 0x748 JUMP JUMPDEST PUSH2 0x16B PUSH2 0x2BA CALLDATASIZE PUSH1 0x4 PUSH2 0xD17 JUMP JUMPDEST PUSH1 0x1 PUSH1 0x1 PUSH1 0xA0 SHL SUB AND PUSH0 SWAP1 DUP2 MSTORE PUSH1 0x2 PUSH1 0x20 MSTORE PUSH1 0x40 SWAP1 KECCAK256 SLOAD SWAP1 JUMP JUMPDEST PUSH2 0x18A PUSH2 0x2E2 CALLDATASIZE PUSH1 0x4 PUSH2 0xD17 JUMP JUMPDEST PUSH2 0x7B3 JUMP JUMPDEST PUSH2 0x2FA PUSH2 0x2F5 CALLDATASIZE PUSH1 0x4 PUSH2 0xDBB JUMP JUMPDEST PUSH2 0x876 JUMP JUMPDEST PUSH1 0x40 MLOAD PUSH1 0x1 PUSH1 0x1 PUSH1 0xA0 SHL SUB SWAP1 SWAP2 AND DUP2 MSTORE PUSH1 0x20 ADD PUSH2 0x15E JUMP JUMPDEST PUSH2 0x19F PUSH2 0x320 CALLDATASIZE PUSH1 0x4 PUSH2 0xD17 JUMP JUMPDEST PUSH1 0x1 PUSH1 0x1 PUSH1 0xA0 SHL SUB SWAP1 DUP2 AND PUSH0 SWAP1 DUP2 MSTORE PUSH1 0x1 PUSH1 0x20 MSTORE PUSH1 0x40 SWAP1 KECCAK256 SLOAD AND ISZERO ISZERO SWAP1 JUMP JUMPDEST PUSH2 0x18A PUSH2 0x34D CALLDATASIZE PUSH1 0x4 PUSH2 0xE2B JUMP JUMPDEST PUSH2 0x8AA JUMP JUMPDEST PUSH0 SLOAD PUSH2 0x2FA SWAP1 PUSH1 0x1 PUSH1 0x1 PUSH1 0xA0 SHL SUB AND DUP2 JUMP JUMPDEST PUSH0 SLOAD PUSH1 0x1 PUSH1 0x1 PUSH1 0xA0 SHL SUB AND CALLER EQ PUSH2 0x396 JUMPI PUSH1 0x40 MLOAD PUSH3 0x461BCD PUSH1 0xE5 SHL DUP2 MSTORE PUSH1 0x4 ADD PUSH2 0x38D SWAP1 PUSH2 0xECA JUMP JUMPDEST PUSH1 0x40 MLOAD DUP1 SWAP2 SUB SWAP1 REVERT JUMPDEST PUSH0 DUP1 SLOAD PUSH1 0xFF PUSH1 0xA0 SHL NOT AND SWAP1 SSTORE PUSH1 0x40 MLOAD CALLER DUP2 MSTORE PUSH32 0x5DB9EE0A495BF2E6FF9C91A7834C1BA4FDD244A5E8AA4E537BD38AEAE4B073AA SWAP1 PUSH1 0x20 ADD JUMPDEST PUSH1 0x40 MLOAD DUP1 SWAP2 SUB SWAP1 LOG1 JUMP JUMPDEST PUSH0 SLOAD PUSH1 0x1 PUSH1 0x1 PUSH1 0xA0 SHL SUB AND CALLER EQ PUSH2 0x401 JUMPI PUSH1 0x40 MLOAD PUSH3 0x461BCD PUSH1 0xE5 SHL DUP2 MSTORE PUSH1 0x4 ADD PUSH2 0x38D SWAP1 PUSH2 0xECA JUMP JUMPDEST PUSH0 SLOAD PUSH1 0x1 PUSH1 0xA0 SHL SWAP1 DIV PUSH1 0xFF AND ISZERO PUSH2 0x44F JUMPI PUSH1 0x40 MLOAD PUSH3 0x461BCD PUSH1 0xE5 SHL DUP2 MSTORE PUSH1 0x20 PUSH1 0x4 DUP3 ADD MSTORE PUSH1 0x12 PUSH1 0x24 DUP3 ADD MSTORE PUSH18 0x10DBDB9D1C9858DD081A5CC81C185D5CD959 PUSH1 0x72 SHL PUSH1 0x44 DUP3 ADD MSTORE PUSH1 0x64 ADD PUSH2 0x38D JUMP JUMPDEST PUSH1 0x1 PUSH1 0x1 PUSH1 0xA0 SHL SUB DUP4 AND PUSH2 0x4A5 JUMPI PUSH1 0x40 MLOAD PUSH3 0x461BCD PUSH1 0xE5 SHL DUP2 MSTORE PUSH1 0x20 PUSH1 0x4 DUP3 ADD MSTORE PUSH1 0x17 PUSH1 0x24 DUP3 ADD MSTORE PUSH32 0x496E76616C69642063726561746F722061646472657373000000000000000000 PUSH1 0x44 DUP3 ADD MSTORE PUSH1 0x64 ADD PUSH2 0x38D JUMP JUMPDEST PUSH1 0x1 PUSH1 0x1 PUSH1 0xA0 SHL SUB DUP3 AND PUSH2 0x4FB JUMPI PUSH1 0x40 MLOAD PUSH3 0x461BCD PUSH1 0xE5 SHL DUP2 MSTORE PUSH1 0x20 PUSH1 0x4 DUP3 ADD MSTORE PUSH1 0x18 PUSH1 0x24 DUP3 ADD MSTORE PUSH32 0x496E76616C696420636F6E747261637420616464726573730000000000000000 PUSH1 0x44 DUP3 ADD MSTORE PUSH1 0x64 ADD PUSH2 0x38D JUMP JUMPDEST DUP2 EXTCODESIZE PUSH2 0x53A JUMPI PUSH1 0x40 MLOAD PUSH3 0x461BCD PUSH1 0xE5 SHL DUP2 MSTORE PUSH1 0x20 PUSH1 0x4 DUP3 ADD MSTORE PUSH1 0xE PUSH1 0x24 DUP3 ADD MSTORE PUSH14 0x139BDD08184818DBDB9D1C9858DD PUSH1 0x92 SHL PUSH1 0x44 DUP3 ADD MSTORE PUSH1 0x64 ADD PUSH2 0x38D JUMP JUMPDEST PUSH1 0x1 PUSH1 0x1 PUSH1 0xA0 SHL SUB DUP3 DUP2 AND PUSH0 SWAP1 DUP2 MSTORE PUSH1 0x1 PUSH1 0x20 MSTORE PUSH1 0x40 SWAP1 KECCAK256 SLOAD AND ISZERO PUSH2 0x596 JUMPI PUSH1 0x40 MLOAD PUSH3 0x461BCD PUSH1 0xE5 SHL DUP2 MSTORE PUSH1 0x20 PUSH1 0x4 DUP3 ADD MSTORE PUSH1 0x12 PUSH1 0x24 DUP3 ADD MSTORE PUSH18 0x105B1C9958591E481C9959DA5CDD195C9959 PUSH1 0x72 SHL PUSH1 0x44 DUP3 ADD MSTORE PUSH1 0x64 ADD PUSH2 0x38D JUMP JUMPDEST PUSH1 0x40 DUP1 MLOAD PUSH1 0x80 DUP2 ADD DUP3 MSTORE PUSH1 0x1 PUSH1 0x1 PUSH1 0xA0 SHL SUB DUP1 DUP7 AND DUP1 DUP4 MSTORE DUP6 DUP3 AND PUSH1 0x20 DUP1 DUP6 ADD DUP3 DUP2 MSTORE TIMESTAMP DUP7 DUP9 ADD SWAP1 DUP2 MSTORE PUSH1 0x60 DUP8 ADD DUP10 DUP2 MSTORE PUSH0 DUP6 DUP2 MSTORE PUSH1 0x1 DUP1 DUP7 MSTORE DUP11 DUP3 KECCAK256 SWAP10 MLOAD DUP11 SLOAD SWAP1 DUP11 AND PUSH1 0x1 PUSH1 0x1 PUSH1 0xA0 SHL SUB NOT SWAP2 DUP3 AND OR DUP12 SSTORE SWAP5 MLOAD DUP11 DUP3 ADD DUP1 SLOAD SWAP2 SWAP1 SWAP11 AND SWAP1 DUP7 AND OR SWAP1 SWAP9 SSTORE SWAP2 MLOAD PUSH1 0x2 DUP1 DUP11 ADD SWAP2 SWAP1 SWAP2 SSTORE SWAP1 MLOAD PUSH1 0x3 SWAP1 SWAP9 ADD SWAP8 SWAP1 SWAP8 SSTORE DUP5 DUP2 MSTORE SWAP6 DUP3 MSTORE DUP7 DUP7 KECCAK256 DUP1 SLOAD SWAP6 DUP7 ADD DUP2 SSTORE DUP7 MSTORE DUP2 DUP7 KECCAK256 SWAP1 SWAP5 ADD DUP1 SLOAD SWAP1 SWAP5 AND SWAP1 SWAP2 OR SWAP1 SWAP3 SSTORE DUP3 MSTORE PUSH1 0x4 SWAP1 MSTORE KECCAK256 SLOAD PUSH1 0xFF AND PUSH2 0x666 JUMPI PUSH1 0x1 PUSH1 0x1 PUSH1 0xA0 SHL SUB DUP4 AND PUSH0 SWAP1 DUP2 MSTORE PUSH1 0x4 PUSH1 0x20 MSTORE PUSH1 0x40 SWAP1 KECCAK256 DUP1 SLOAD PUSH1 0xFF NOT AND PUSH1 0x1 OR SWAP1 SSTORE JUMPDEST PUSH1 0x3 DUP1 SLOAD SWAP1 PUSH0 PUSH2 0x675 DUP4 PUSH2 0xEF8 JUMP JUMPDEST SWAP2 SWAP1 POP SSTORE POP DUP2 PUSH1 0x1 PUSH1 0x1 PUSH1 0xA0 SHL SUB AND DUP4 PUSH1 0x1 PUSH1 0x1 PUSH1 0xA0 SHL SUB AND PUSH32 0x78824CCFE90DC08464C188DACB5DF6E135F9DBFE4C057419DE87AE6359BCEB65 TIMESTAMP DUP5 PUSH1 0x40 MLOAD PUSH2 0x6C8 SWAP3 SWAP2 SWAP1 SWAP2 DUP3 MSTORE PUSH1 0x20 DUP3 ADD MSTORE PUSH1 0x40 ADD SWAP1 JUMP JUMPDEST PUSH1 0x40 MLOAD DUP1 SWAP2 SUB SWAP1 LOG3 POP POP POP JUMP JUMPDEST PUSH1 0x1 PUSH1 0x1 PUSH1 0xA0 SHL SUB DUP2 AND PUSH0 SWAP1 DUP2 MSTORE PUSH1 0x2 PUSH1 0x20 SWAP1 DUP2 MSTORE PUSH1 0x40 SWAP2 DUP3 SWAP1 KECCAK256 DUP1 SLOAD DUP4 MLOAD DUP2 DUP5 MUL DUP2 ADD DUP5 ADD SWAP1 SWAP5 MSTORE DUP1 DUP5 MSTORE PUSH1 0x60 SWAP4 SWAP3 DUP4 ADD DUP3 DUP3 DUP1 ISZERO PUSH2 0x73C JUMPI PUSH1 0x20 MUL DUP3 ADD SWAP2 SWAP1 PUSH0 MSTORE PUSH1 0x20 PUSH0 KECCAK256 SWAP1 JUMPDEST DUP2 SLOAD PUSH1 0x1 PUSH1 0x1 PUSH1 0xA0 SHL SUB AND DUP2 MSTORE PUSH1 0x1 SWAP1 SWAP2 ADD SWAP1 PUSH1 0x20 ADD DUP1 DUP4 GT PUSH2 0x71E JUMPI JUMPDEST POP POP POP POP POP SWAP1 POP SWAP2 SWAP1 POP JUMP JUMPDEST PUSH0 SLOAD PUSH1 0x1 PUSH1 0x1 PUSH1 0xA0 SHL SUB AND CALLER EQ PUSH2 0x771 JUMPI PUSH1 0x40 MLOAD PUSH3 0x461BCD PUSH1 0xE5 SHL DUP2 MSTORE PUSH1 0x4 ADD PUSH2 0x38D SWAP1 PUSH2 0xECA JUMP JUMPDEST PUSH0 DUP1 SLOAD PUSH1 0xFF PUSH1 0xA0 SHL NOT AND PUSH1 0x1 PUSH1 0xA0 SHL OR SWAP1 SSTORE PUSH1 0x40 MLOAD CALLER DUP2 MSTORE PUSH32 0x62E78CEA01BEE320CD4E420270B5EA74000D11B0C9F74754EBDBFC544B05A258 SWAP1 PUSH1 0x20 ADD PUSH2 0x3CE JUMP JUMPDEST PUSH0 SLOAD PUSH1 0x1 PUSH1 0x1 PUSH1 0xA0 SHL SUB AND CALLER EQ PUSH2 0x7DC JUMPI PUSH1 0x40 MLOAD PUSH3 0x461BCD PUSH1 0xE5 SHL DUP2 MSTORE PUSH1 0x4 ADD PUSH2 0x38D SWAP1 PUSH2 0xECA JUMP JUMPDEST PUSH1 0x1 PUSH1 0x1 PUSH1 0xA0 SHL SUB DUP2 AND PUSH2 0x827 JUMPI PUSH1 0x40 MLOAD PUSH3 0x461BCD PUSH1 0xE5 SHL DUP2 MSTORE PUSH1 0x20 PUSH1 0x4 DUP3 ADD MSTORE PUSH1 0x12 PUSH1 0x24 DUP3 ADD MSTORE PUSH18 0x125B9D985B1A59081B995DC81DD85B1B195D PUSH1 0x72 SHL PUSH1 0x44 DUP3 ADD MSTORE PUSH1 0x64 ADD PUSH2 0x38D JUMP JUMPDEST PUSH0 DUP1 SLOAD PUSH1 0x1 PUSH1 0x1 PUSH1 0xA0 SHL SUB DUP4 DUP2 AND PUSH1 0x1 PUSH1 0x1 PUSH1 0xA0 SHL SUB NOT DUP4 AND DUP2 OR DUP5 SSTORE PUSH1 0x40 MLOAD SWAP2 SWAP1 SWAP3 AND SWAP3 DUP4 SWAP2 PUSH32 0xF84F6B525C89A18C80BBBC0C62A7EB5390956D6B8432AB067B49963A98F8C38F SWAP2 SWAP1 LOG3 POP POP JUMP JUMPDEST PUSH1 0x2 PUSH1 0x20 MSTORE DUP2 PUSH0 MSTORE PUSH1 0x40 PUSH0 KECCAK256 DUP2 DUP2 SLOAD DUP2 LT PUSH2 0x88F JUMPI PUSH0 DUP1 REVERT JUMPDEST PUSH0 SWAP2 DUP3 MSTORE PUSH1 0x20 SWAP1 SWAP2 KECCAK256 ADD SLOAD PUSH1 0x1 PUSH1 0x1 PUSH1 0xA0 SHL SUB AND SWAP2 POP DUP3 SWAP1 POP JUMP JUMPDEST PUSH0 SLOAD PUSH1 0x1 PUSH1 0x1 PUSH1 0xA0 SHL SUB AND CALLER EQ PUSH2 0x8D3 JUMPI PUSH1 0x40 MLOAD PUSH3 0x461BCD PUSH1 0xE5 SHL DUP2 MSTORE PUSH1 0x4 ADD PUSH2 0x38D SWAP1 PUSH2 0xECA JUMP JUMPDEST PUSH0 SLOAD PUSH1 0x1 PUSH1 0xA0 SHL SWAP1 DIV PUSH1 0xFF AND ISZERO PUSH2 0x921 JUMPI PUSH1 0x40 MLOAD PUSH3 0x461BCD PUSH1 0xE5 SHL DUP2 MSTORE PUSH1 0x20 PUSH1 0x4 DUP3 ADD MSTORE PUSH1 0x12 PUSH1 0x24 DUP3 ADD MSTORE PUSH18 0x10DBDB9D1C9858DD081A5CC81C185D5CD959 PUSH1 0x72 SHL PUSH1 0x44 DUP3 ADD MSTORE PUSH1 0x64 ADD PUSH2 0x38D JUMP JUMPDEST DUP5 DUP4 EQ DUP1 ISZERO PUSH2 0x92F JUMPI POP DUP5 DUP2 EQ JUMPDEST PUSH2 0x973 JUMPI PUSH1 0x40 MLOAD PUSH3 0x461BCD PUSH1 0xE5 SHL DUP2 MSTORE PUSH1 0x20 PUSH1 0x4 DUP3 ADD MSTORE PUSH1 0x15 PUSH1 0x24 DUP3 ADD MSTORE PUSH21 0x82E4E4C2F240D8CADCCEE8D040DAD2E6DAC2E8C6D PUSH1 0x5B SHL PUSH1 0x44 DUP3 ADD MSTORE PUSH1 0x64 ADD PUSH2 0x38D JUMP JUMPDEST DUP5 PUSH2 0x9AF JUMPI PUSH1 0x40 MLOAD PUSH3 0x461BCD PUSH1 0xE5 SHL DUP2 MSTORE PUSH1 0x20 PUSH1 0x4 DUP3 ADD MSTORE PUSH1 0xC PUSH1 0x24 DUP3 ADD MSTORE PUSH12 0x456D70747920617272617973 PUSH1 0xA0 SHL PUSH1 0x44 DUP3 ADD MSTORE PUSH1 0x64 ADD PUSH2 0x38D JUMP JUMPDEST PUSH1 0x64 DUP6 GT ISZERO PUSH2 0x9F2 JUMPI PUSH1 0x40 MLOAD PUSH3 0x461BCD PUSH1 0xE5 SHL DUP2 MSTORE PUSH1 0x20 PUSH1 0x4 DUP3 ADD MSTORE PUSH1 0xF PUSH1 0x24 DUP3 ADD MSTORE PUSH15 0x426174636820746F6F206C61726765 PUSH1 0x88 SHL PUSH1 0x44 DUP3 ADD MSTORE PUSH1 0x64 ADD PUSH2 0x38D JUMP JUMPDEST PUSH0 DUP1 JUMPDEST DUP7 DUP2 LT ISZERO PUSH2 0xCBA JUMPI PUSH0 DUP9 DUP9 DUP4 DUP2 DUP2 LT PUSH2 0xA10 JUMPI PUSH2 0xA10 PUSH2 0xF1C JUMP JUMPDEST SWAP1 POP PUSH1 0x20 MUL ADD PUSH1 0x20 DUP2 ADD SWAP1 PUSH2 0xA25 SWAP2 SWAP1 PUSH2 0xD17 JUMP JUMPDEST SWAP1 POP PUSH0 DUP8 DUP8 DUP5 DUP2 DUP2 LT PUSH2 0xA3A JUMPI PUSH2 0xA3A PUSH2 0xF1C JUMP JUMPDEST SWAP1 POP PUSH1 0x20 MUL ADD PUSH1 0x20 DUP2 ADD SWAP1 PUSH2 0xA4F SWAP2 SWAP1 PUSH2 0xD17 JUMP JUMPDEST SWAP1 POP PUSH0 DUP7 DUP7 DUP6 DUP2 DUP2 LT PUSH2 0xA64 JUMPI PUSH2 0xA64 PUSH2 0xF1C JUMP JUMPDEST PUSH1 0x20 MUL SWAP2 SWAP1 SWAP2 ADD CALLDATALOAD SWAP2 POP POP PUSH1 0x1 PUSH1 0x1 PUSH1 0xA0 SHL SUB DUP4 AND PUSH2 0xAB7 JUMPI PUSH1 0x40 MLOAD PUSH3 0x461BCD PUSH1 0xE5 SHL DUP2 MSTORE PUSH1 0x20 PUSH1 0x4 DUP3 ADD MSTORE PUSH1 0xF PUSH1 0x24 DUP3 ADD MSTORE PUSH15 0x24B73B30B634B21031B932B0BA37B9 PUSH1 0x89 SHL PUSH1 0x44 DUP3 ADD MSTORE PUSH1 0x64 ADD PUSH2 0x38D JUMP JUMPDEST PUSH1 0x1 PUSH1 0x1 PUSH1 0xA0 SHL SUB DUP3 AND PUSH2 0xB00 JUMPI PUSH1 0x40 MLOAD PUSH3 0x461BCD PUSH1 0xE5 SHL DUP2 MSTORE PUSH1 0x20 PUSH1 0x4 DUP3 ADD MSTORE PUSH1 0x10 PUSH1 0x24 DUP3 ADD MSTORE PUSH16 0x125B9D985B1A590818DBDB9D1C9858DD PUSH1 0x82 SHL PUSH1 0x44 DUP3 ADD MSTORE PUSH1 0x64 ADD PUSH2 0x38D JUMP JUMPDEST DUP2 EXTCODESIZE PUSH2 0xB3F JUMPI PUSH1 0x40 MLOAD PUSH3 0x461BCD PUSH1 0xE5 SHL DUP2 MSTORE PUSH1 0x20 PUSH1 0x4 DUP3 ADD MSTORE PUSH1 0xE PUSH1 0x24 DUP3 ADD MSTORE PUSH14 0x139BDD08184818DBDB9D1C9858DD PUSH1 0x92 SHL PUSH1 0x44 DUP3 ADD MSTORE PUSH1 0x64 ADD PUSH2 0x38D JUMP JUMPDEST PUSH1 0x1 PUSH1 0x1 PUSH1 0xA0 SHL SUB DUP3 DUP2 AND PUSH0 SWAP1 DUP2 MSTORE PUSH1 0x1 PUSH1 0x20 MSTORE PUSH1 0x40 SWAP1 KECCAK256 SLOAD AND ISZERO PUSH2 0xB66 JUMPI POP POP POP PUSH2 0xCB2 JUMP JUMPDEST PUSH1 0x40 DUP1 MLOAD PUSH1 0x80 DUP2 ADD DUP3 MSTORE PUSH1 0x1 PUSH1 0x1 PUSH1 0xA0 SHL SUB DUP1 DUP7 AND DUP1 DUP4 MSTORE DUP6 DUP3 AND PUSH1 0x20 DUP1 DUP6 ADD DUP3 DUP2 MSTORE TIMESTAMP DUP7 DUP9 ADD SWAP1 DUP2 MSTORE PUSH1 0x60 DUP8 ADD DUP10 DUP2 MSTORE PUSH0 DUP6 DUP2 MSTORE PUSH1 0x1 DUP1 DUP7 MSTORE DUP11 DUP3 KECCAK256 SWAP10 MLOAD DUP11 SLOAD SWAP1 DUP11 AND PUSH1 0x1 PUSH1 0x1 PUSH1 0xA0 SHL SUB NOT SWAP2 DUP3 AND OR DUP12 SSTORE SWAP5 MLOAD DUP11 DUP3 ADD DUP1 SLOAD SWAP2 SWAP1 SWAP11 AND SWAP1 DUP7 AND OR SWAP1 SWAP9 SSTORE SWAP2 MLOAD PUSH1 0x2 DUP1 DUP11 ADD SWAP2 SWAP1 SWAP2 SSTORE SWAP1 MLOAD PUSH1 0x3 SWAP1 SWAP9 ADD SWAP8 SWAP1 SWAP8 SSTORE DUP5 DUP2 MSTORE SWAP6 DUP3 MSTORE DUP7 DUP7 KECCAK256 DUP1 SLOAD SWAP6 DUP7 ADD DUP2 SSTORE DUP7 MSTORE DUP2 DUP7 KECCAK256 SWAP1 SWAP5 ADD DUP1 SLOAD SWAP1 SWAP5 AND SWAP1 SWAP2 OR SWAP1 SWAP3 SSTORE DUP3 MSTORE PUSH1 0x4 SWAP1 MSTORE KECCAK256 SLOAD PUSH1 0xFF AND PUSH2 0xC36 JUMPI PUSH1 0x1 PUSH1 0x1 PUSH1 0xA0 SHL SUB DUP4 AND PUSH0 SWAP1 DUP2 MSTORE PUSH1 0x4 PUSH1 0x20 MSTORE PUSH1 0x40 SWAP1 KECCAK256 DUP1 SLOAD PUSH1 0xFF NOT AND PUSH1 0x1 OR SWAP1 SSTORE JUMPDEST PUSH1 0x3 DUP1 SLOAD SWAP1 PUSH0 PUSH2 0xC45 DUP4 PUSH2 0xEF8 JUMP JUMPDEST SWAP2 SWAP1 POP SSTORE POP DUP5 DUP1 PUSH2 0xC55 SWAP1 PUSH2 0xEF8 JUMP JUMPDEST SWAP6 POP POP DUP2 PUSH1 0x1 PUSH1 0x1 PUSH1 0xA0 SHL SUB AND DUP4 PUSH1 0x1 PUSH1 0x1 PUSH1 0xA0 SHL SUB AND PUSH32 0x78824CCFE90DC08464C188DACB5DF6E135F9DBFE4C057419DE87AE6359BCEB65 TIMESTAMP DUP5 PUSH1 0x40 MLOAD PUSH2 0xCA6 SWAP3 SWAP2 SWAP1 SWAP2 DUP3 MSTORE PUSH1 0x20 DUP3 ADD MSTORE PUSH1 0x40 ADD SWAP1 JUMP JUMPDEST PUSH1 0x40 MLOAD DUP1 SWAP2 SUB SWAP1 LOG3 POP POP POP JUMPDEST PUSH1 0x1 ADD PUSH2 0x9F5 JUMP JUMPDEST POP PUSH1 0x40 DUP1 MLOAD DUP3 DUP2 MSTORE TIMESTAMP PUSH1 0x20 DUP3 ADD MSTORE PUSH32 0x5147E56F82DD95B39D986545D47FCC2F02EBE9938671C93E73EC1F28404CEF7D SWAP2 ADD PUSH1 0x40 MLOAD DUP1 SWAP2 SUB SWAP1 LOG1 POP POP POP POP POP POP POP JUMP JUMPDEST DUP1 CALLDATALOAD PUSH1 0x1 PUSH1 0x1 PUSH1 0xA0 SHL SUB DUP2 AND DUP2 EQ PUSH2 0xD12 JUMPI PUSH0 PUSH0 REVERT JUMPDEST SWAP2 SWAP1 POP JUMP JUMPDEST PUSH0 PUSH1 0x20 DUP3 DUP5 SUB SLT ISZERO PUSH2 0xD27 JUMPI PUSH0 PUSH0 REVERT JUMPDEST PUSH2 0xD30 DUP3 PUSH2 0xCFC JUMP JUMPDEST SWAP4 SWAP3 POP POP POP JUMP JUMPDEST PUSH0 PUSH0 PUSH0 PUSH1 0x60 DUP5 DUP7 SUB SLT ISZERO PUSH2 0xD49 JUMPI PUSH0 PUSH0 REVERT JUMPDEST PUSH2 0xD52 DUP5 PUSH2 0xCFC JUMP JUMPDEST SWAP3 POP PUSH2 0xD60 PUSH1 0x20 DUP6 ADD PUSH2 0xCFC JUMP JUMPDEST SWAP2 POP PUSH1 0x40 DUP5 ADD CALLDATALOAD SWAP1 POP SWAP3 POP SWAP3 POP SWAP3 JUMP JUMPDEST PUSH1 0x20 DUP1 DUP3 MSTORE DUP3 MLOAD DUP3 DUP3 ADD DUP2 SWAP1 MSTORE PUSH0 SWAP2 DUP5 ADD SWAP1 PUSH1 0x40 DUP5 ADD SWAP1 DUP4 JUMPDEST DUP2 DUP2 LT ISZERO PUSH2 0xDB0 JUMPI DUP4 MLOAD PUSH1 0x1 PUSH1 0x1 PUSH1 0xA0 SHL SUB AND DUP4 MSTORE PUSH1 0x20 SWAP4 DUP5 ADD SWAP4 SWAP1 SWAP3 ADD SWAP2 PUSH1 0x1 ADD PUSH2 0xD89 JUMP JUMPDEST POP SWAP1 SWAP6 SWAP5 POP POP POP POP POP JUMP JUMPDEST PUSH0 PUSH0 PUSH1 0x40 DUP4 DUP6 SUB SLT ISZERO PUSH2 0xDCC JUMPI PUSH0 PUSH0 REVERT JUMPDEST PUSH2 0xDD5 DUP4 PUSH2 0xCFC JUMP JUMPDEST SWAP5 PUSH1 0x20 SWAP4 SWAP1 SWAP4 ADD CALLDATALOAD SWAP4 POP POP POP JUMP JUMPDEST PUSH0 PUSH0 DUP4 PUSH1 0x1F DUP5 ADD SLT PUSH2 0xDF3 JUMPI PUSH0 PUSH0 REVERT JUMPDEST POP DUP2 CALLDATALOAD PUSH8 0xFFFFFFFFFFFFFFFF DUP2 GT ISZERO PUSH2 0xE0A JUMPI PUSH0 PUSH0 REVERT JUMPDEST PUSH1 0x20 DUP4 ADD SWAP2 POP DUP4 PUSH1 0x20 DUP3 PUSH1 0x5 SHL DUP6 ADD ADD GT ISZERO PUSH2 0xE24 JUMPI PUSH0 PUSH0 REVERT JUMPDEST SWAP3 POP SWAP3 SWAP1 POP JUMP JUMPDEST PUSH0 PUSH0 PUSH0 PUSH0 PUSH0 PUSH0 PUSH1 0x60 DUP8 DUP10 SUB SLT ISZERO PUSH2 0xE40 JUMPI PUSH0 PUSH0 REVERT JUMPDEST DUP7 CALLDATALOAD PUSH8 0xFFFFFFFFFFFFFFFF DUP2 GT ISZERO PUSH2 0xE56 JUMPI PUSH0 PUSH0 REVERT JUMPDEST PUSH2 0xE62 DUP10 DUP3 DUP11 ADD PUSH2 0xDE3 JUMP JUMPDEST SWAP1 SWAP8 POP SWAP6 POP POP PUSH1 0x20 DUP8 ADD CALLDATALOAD PUSH8 0xFFFFFFFFFFFFFFFF DUP2 GT ISZERO PUSH2 0xE81 JUMPI PUSH0 PUSH0 REVERT JUMPDEST PUSH2 0xE8D DUP10 DUP3 DUP11 ADD PUSH2 0xDE3 JUMP JUMPDEST SWAP1 SWAP6 POP SWAP4 POP POP PUSH1 0x40 DUP8 ADD CALLDATALOAD PUSH8 0xFFFFFFFFFFFFFFFF DUP2 GT ISZERO PUSH2 0xEAC JUMPI PUSH0 PUSH0 REVERT JUMPDEST PUSH2 0xEB8 DUP10 DUP3 DUP11 ADD PUSH2 0xDE3 JUMP JUMPDEST SWAP8 SWAP11 SWAP7 SWAP10 POP SWAP5 SWAP8 POP SWAP3 SWAP6 SWAP4 SWAP5 SWAP3 POP POP POP JUMP JUMPDEST PUSH1 0x20 DUP1 DUP3 MSTORE PUSH1 0x14 SWAP1 DUP3 ADD MSTORE PUSH20 0x13DB9B1E481C1B185D199BDC9B481DD85B1B195D PUSH1 0x62 SHL PUSH1 0x40 DUP3 ADD MSTORE PUSH1 0x60 ADD SWAP1 JUMP JUMPDEST PUSH0 PUSH1 0x1 DUP3 ADD PUSH2 0xF15 JUMPI PUSH4 0x4E487B71 PUSH1 0xE0 SHL PUSH0 MSTORE PUSH1 0x11 PUSH1 0x4 MSTORE PUSH1 0x24 PUSH0 REVERT JUMPDEST POP PUSH1 0x1 ADD SWAP1 JUMP JUMPDEST PUSH4 0x4E487B71 PUSH1 0xE0 SHL PUSH0 MSTORE PUSH1 0x32 PUSH1 0x4 MSTORE PUSH1 0x24 PUSH0 REVERT INVALID LOG2 PUSH5 0x6970667358 0x22 SLT KECCAK256 MULMOD 0x28 PUSH8 0x94A7ABD990FD8954 NOT 0x4E GT 0xB5 0xE2 GASPRICE JUMPI 0x26 0xDA 0xC0 DUP7 GAS PUSH6 0xC67B9DD5568 ORIGIN SWAP8 PUSH5 0x736F6C6343 STOP ADDMOD 0x1E STOP CALLER "},"methodIdentifiers":{"batchRegister(address[],address[],bytes32[])":"e1a864a4","getRegistration(address)":"72731062","getTotalCreators()":"31e8e39d","getUserCoinCount(address)":"87555c9f","getUserCoins(address)":"7bd8f49c","isRegistered(address)":"c3c5a547","pause()":"8456cb59","paused()":"5c975abb","platformWallet()":"fa2af9da","register(address,address,bytes32)":"69b15fce","registry(address)":"038defd7","totalCoins()":"32454dbb","unpause()":"3f4ba83a","updatePlatformWallet(address)":"ada4ef30","userCoins(address,uint256)":"be1e8a2a"}}}}}