{"contracts/CoinRegistry.sol":{"CoinRegistry":{"abi":[{"inputs":[{"internalType":"address","name":"_platformWallet","type":"address"}],"stateMutability":"nonpayable","type":"constructor"},{"anonymous":false,"inputs":[{"indexed":false,"internalType":"uint256","name":"count","type":"uint256"},{"indexed":false,"internalType":"uint256","name":"timestamp","type":"uint256"}],"name":"BatchRegistered","type":"event"},{"anonymous":false,"inputs":[{"indexed":true,"internalType":"address","name":"creator","type":"address"},{"indexed":true,"internalType":"address","name":"zoraContract","type":"address"},{"indexed":false,"internalType":"uint256","name":"timestamp","type":"uint256"},{"indexed":false,"internalType":"bytes32","name":"txHash","type":"bytes32"}],"name":"CoinRegistered","type":"event"},{"anonymous":false,"inputs":[{"indexed":false,"internalType":"address","name":"account","type":"address"}],"name":"Paused","type":"event"},{"anonymous":false,"inputs":[{"indexed":true,"internalType":"address","name":"oldWallet","type":"address"},{"indexed":true,"internalType":"address","name":"newWallet","type":"address"}],"name":"PlatformWalletUpdated","type":"event"},{"anonymous":false,"inputs":[{"indexed":false,"internalType":"address","name":"account","type":"address"}],"name":"Unpaused","type":"event"},{"inputs":[{"internalType":"address[]","name":"creators","type":"address[]"},{"internalType":"address[]","name":"zoraContracts","type":"address[]"},{"internalType":"bytes32[]","name":"txHashes","type":"bytes32[]"},{"internalType":"uint256[]","name":"createdAtTimestamps","type":"uint256[]"}],"name":"batchRegister","outputs":[],"stateMutability":"nonpayable","type":"function"},{"inputs":[{"internalType":"address","name":"zoraContract","type":"address"}],"name":"getRegistration","outputs":[{"components":[{"internalType":"address","name":"creator","type":"address"},{"internalType":"address","name":"zoraContract","type":"address"},{"internalType":"uint256","name":"timestamp","type":"uint256"},{"internalType":"bytes32","name":"txHash","type":"bytes32"}],"internalType":"struct CoinRegistry.CoinRegistration","name":"","type":"tuple"}],"stateMutability":"view","type":"function"},{"inputs":[],"name":"getTotalCreators","outputs":[{"internalType":"uint256","name":"","type":"uint256"}],"stateMutability":"view","type":"function"},{"inputs":[{"internalType":"address","name":"creator","type":"address"}],"name":"getUserCoinCount","outputs":[{"internalType":"uint256","name":"","type":"uint256"}],"stateMutability":"view","type":"function"},{"inputs":[{"internalType":"address","name":"creator","type":"address"}],"name":"getUserCoins","outputs":[{"internalType":"address[]","name":"","type":"address[]"}],"stateMutability":"view","type":"function"},{"inputs":[{"internalType":"address","name":"zoraContract","type":"address"}],"name":"isRegistered","outputs":[{"internalType":"bool","name":"","type":"bool"}],"stateMutability":"view","type":"function"},{"inputs":[],"name":"pause","outputs":[],"stateMutability":"nonpayable","type":"function"},{"inputs":[],"name":"paused","outputs":[{"internalType":"bool","name":"","type":"bool"}],"stateMutability":"view","type":"function"},{"inputs":[],"name":"platformWallet","outputs":[{"internalType":"address","name":"","type":"address"}],"stateMutability":"view","type":"function"},{"inputs":[{"internalType":"address","name":"creator","type":"address"},{"internalType":"address","name":"zoraContract","type":"address"},{"internalType":"bytes32","name":"txHash","type":"bytes32"}],"name":"register","outputs":[],"stateMutability":"nonpayable","type":"function"},{"inputs":[{"internalType":"address","name":"","type":"address"}],"name":"registry","outputs":[{"internalType":"address","name":"creator","type":"address"},{"internalType":"address","name":"zoraContract","type":"address"},{"internalType":"uint256","name":"timestamp","type":"uint256"},{"internalType":"bytes32","name":"txHash","type":"bytes32"}],"stateMutability":"view","type":"function"},{"inputs":[],"name":"totalCoins","outputs":[{"internalType":"uint256","name":"","type":"uint256"}],"stateMutability":"view","type":"function"},{"inputs":[],"name":"unpause","outputs":[],"stateMutability":"nonpayable","type":"function"},{"inputs":[{"internalType":"address","name":"newWallet","type":"address"}],"name":"updatePlatformWallet","outputs":[],"stateMutability":"nonpayable","type":"function"},{"inputs":[{"internalType":"address","name":"","type":"address"},{"internalType":"uint256","name":"","type":"uint256"}],"name":"userCoins","outputs":[{"internalType":"address","name":"","type":"address"}],"stateMutability":"view","type":"function"}],"evm":{"bytecode":{"linkReferences":{},"object":"6080604052348015600e575f5ffd5b506040516110f93803806110f9833981016040819052602b9160a7565b6001600160a01b03811660845760405162461bcd60e51b815260206004820152601760248201527f496e76616c696420706c6174666f726d2077616c6c6574000000000000000000604482015260640160405180910390fd5b5f80546001600160a01b0319166001600160a01b039290921691909117905560d2565b5f6020828403121560b6575f5ffd5b81516001600160a01b038116811460cb575f5ffd5b9392505050565b61101a806100df5f395ff3fe608060405234801561000f575f5ffd5b50600436106100f0575f3560e01c80637273106211610093578063ada4ef3011610063578063ada4ef30146102e7578063be1e8a2a146102fa578063c3c5a54714610325578063fa2af9da14610352575f5ffd5b806372731062146101d55780637bd8f49c146102975780638456cb59146102b757806387555c9f146102bf575f5ffd5b80633f4ba83a116100ce5780633f4ba83a146101825780635c975abb1461018c57806369b15fce146101af5780636df26d9a146101c2575f5ffd5b8063038defd7146100f457806331e8e39d1461016757806332454dbb14610179575b5f5ffd5b610137610102366004610d9c565b600160208190525f918252604090912080549181015460028201546003909201546001600160a01b0393841693909116919084565b604080516001600160a01b0395861681529490931660208501529183015260608201526080015b60405180910390f35b6003545b60405190815260200161015e565b61016b60035481565b61018a610364565b005b5f5461019f90600160a01b900460ff1681565b604051901515815260200161015e565b61018a6101bd366004610dbc565b6103d8565b61018a6101d0366004610e3d565b6106d5565b6102566101e3366004610d9c565b604080516080810182525f808252602082018190529181018290526060810191909152506001600160a01b039081165f9081526001602081815260409283902083516080810185528154861681529281015490941690820152600283015491810191909152600390910154606082015290565b60405161015e919081516001600160a01b03908116825260208084015190911690820152604080830151908201526060918201519181019190915260800190565b6102aa6102a5366004610d9c565b610bac565b60405161015e9190610f0b565b61018a610c1f565b61016b6102cd366004610d9c565b6001600160a01b03165f9081526002602052604090205490565b61018a6102f5366004610d9c565b610c8a565b61030d610308366004610f56565b610d4d565b6040516001600160a01b03909116815260200161015e565b61019f610333366004610d9c565b6001600160a01b039081165f9081526001602052604090205416151590565b5f5461030d906001600160a01b031681565b5f546001600160a01b031633146103965760405162461bcd60e51b815260040161038d90610f7e565b60405180910390fd5b5f805460ff60a01b191690556040513381527f5db9ee0a495bf2e6ff9c91a7834c1ba4fdd244a5e8aa4e537bd38aeae4b073aa906020015b60405180910390a1565b5f546001600160a01b031633146104015760405162461bcd60e51b815260040161038d90610f7e565b5f54600160a01b900460ff161561044f5760405162461bcd60e51b815260206004820152601260248201527110dbdb9d1c9858dd081a5cc81c185d5cd95960721b604482015260640161038d565b6001600160a01b0383166104a55760405162461bcd60e51b815260206004820152601760248201527f496e76616c69642063726561746f722061646472657373000000000000000000604482015260640161038d565b6001600160a01b0382166104fb5760405162461bcd60e51b815260206004820152601860248201527f496e76616c696420636f6e747261637420616464726573730000000000000000604482015260640161038d565b813b61053a5760405162461bcd60e51b815260206004820152600e60248201526d139bdd08184818dbdb9d1c9858dd60921b604482015260640161038d565b6001600160a01b038281165f9081526001602052604090205416156105965760405162461bcd60e51b8152602060048201526012602482015271105b1c9958591e481c9959da5cdd195c995960721b604482015260640161038d565b604080516080810182526001600160a01b03808616808352858216602080850182815242868801908152606087018981525f85815260018086528a822099518a54908a166001600160a01b0319918216178b5594518a8201805491909a169086161790985591516002808a019190915590516003909801979097558481529582528686208054958601815586528186209094018054909416909117909255825260049052205460ff16610666576001600160a01b0383165f908152600460205260409020805460ff191660011790555b60038054905f61067583610fac565b9190505550816001600160a01b0316836001600160a01b03167f78824ccfe90dc08464c188dacb5df6e135f9dbfe4c057419de87ae6359bceb6542846040516106c8929190918252602082015260400190565b60405180910390a3505050565b5f546001600160a01b031633146106fe5760405162461bcd60e51b815260040161038d90610f7e565b5f54600160a01b900460ff161561074c5760405162461bcd60e51b815260206004820152601260248201527110dbdb9d1c9858dd081a5cc81c185d5cd95960721b604482015260640161038d565b868514801561075a57508683145b801561076557508681145b6107a95760405162461bcd60e51b8152602060048201526015602482015274082e4e4c2f240d8cadccee8d040dad2e6dac2e8c6d605b1b604482015260640161038d565b866107e55760405162461bcd60e51b815260206004820152600c60248201526b456d7074792061727261797360a01b604482015260640161038d565b60648711156108285760405162461bcd60e51b815260206004820152600f60248201526e426174636820746f6f206c6172676560881b604482015260640161038d565b5f805b88811015610b68575f8a8a8381811061084657610846610fd0565b905060200201602081019061085b9190610d9c565b90505f89898481811061087057610870610fd0565b90506020020160208101906108859190610d9c565b90505f88888581811061089a5761089a610fd0565b9050602002013590505f8787868181106108b6576108b6610fd0565b60200291909101359150506001600160a01b0384166109095760405162461bcd60e51b815260206004820152600f60248201526e24b73b30b634b21031b932b0ba37b960891b604482015260640161038d565b6001600160a01b0383166109525760405162461bcd60e51b815260206004820152601060248201526f125b9d985b1a590818dbdb9d1c9858dd60821b604482015260640161038d565b823b6109915760405162461bcd60e51b815260206004820152600e60248201526d139bdd08184818dbdb9d1c9858dd60921b604482015260640161038d565b5f811180156109a05750428111155b6109ec5760405162461bcd60e51b815260206004820152601a60248201527f496e76616c6964206372656174696f6e2074696d657374616d70000000000000604482015260640161038d565b6001600160a01b038381165f908152600160205260409020541615610a145750505050610b60565b604080516080810182526001600160a01b038087168083528682166020808501828152858701888152606087018a81525f85815260018086528a822099518a54908a166001600160a01b0319918216178b5594518a8201805491909a169086161790985591516002808a019190915590516003909801979097558481529582528686208054958601815586528186209094018054909416909117909255825260049052205460ff16610ae3576001600160a01b0384165f908152600460205260409020805460ff191660011790555b60038054905f610af283610fac565b91905055508580610b0290610fac565b965050826001600160a01b0316846001600160a01b03167f78824ccfe90dc08464c188dacb5df6e135f9dbfe4c057419de87ae6359bceb658385604051610b53929190918252602082015260400190565b60405180910390a3505050505b60010161082b565b50604080518281524260208201527f5147e56f82dd95b39d986545d47fcc2f02ebe9938671c93e73ec1f28404cef7d910160405180910390a1505050505050505050565b6001600160a01b0381165f90815260026020908152604091829020805483518184028101840190945280845260609392830182828015610c1357602002820191905f5260205f20905b81546001600160a01b03168152600190910190602001808311610bf5575b50505050509050919050565b5f546001600160a01b03163314610c485760405162461bcd60e51b815260040161038d90610f7e565b5f805460ff60a01b1916600160a01b1790556040513381527f62e78cea01bee320cd4e420270b5ea74000d11b0c9f74754ebdbfc544b05a258906020016103ce565b5f546001600160a01b03163314610cb35760405162461bcd60e51b815260040161038d90610f7e565b6001600160a01b038116610cfe5760405162461bcd60e51b8152602060048201526012602482015271125b9d985b1a59081b995dc81dd85b1b195d60721b604482015260640161038d565b5f80546001600160a01b038381166001600160a01b0319831681178455604051919092169283917ff84f6b525c89a18c80bbbc0c62a7eb5390956d6b8432ab067b49963a98f8c38f9190a35050565b6002602052815f5260405f208181548110610d66575f80fd5b5f918252602090912001546001600160a01b03169150829050565b80356001600160a01b0381168114610d97575f5ffd5b919050565b5f60208284031215610dac575f5ffd5b610db582610d81565b9392505050565b5f5f5f60608486031215610dce575f5ffd5b610dd784610d81565b9250610de560208501610d81565b9150604084013590509250925092565b5f5f83601f840112610e05575f5ffd5b50813567ffffffffffffffff811115610e1c575f5ffd5b6020830191508360208260051b8501011115610e36575f5ffd5b9250929050565b5f5f5f5f5f5f5f5f6080898b031215610e54575f5ffd5b883567ffffffffffffffff811115610e6a575f5ffd5b610e768b828c01610df5565b909950975050602089013567ffffffffffffffff811115610e95575f5ffd5b610ea18b828c01610df5565b909750955050604089013567ffffffffffffffff811115610ec0575f5ffd5b610ecc8b828c01610df5565b909550935050606089013567ffffffffffffffff811115610eeb575f5ffd5b610ef78b828c01610df5565b999c989b5096995094979396929594505050565b602080825282518282018190525f918401906040840190835b81811015610f4b5783516001600160a01b0316835260209384019390920191600101610f24565b509095945050505050565b5f5f60408385031215610f67575f5ffd5b610f7083610d81565b946020939093013593505050565b60208082526014908201527313db9b1e481c1b185d199bdc9b481dd85b1b195d60621b604082015260600190565b5f60018201610fc957634e487b7160e01b5f52601160045260245ffd5b5060010190565b634e487b7160e01b5f52603260045260245ffdfea26469706673582212205a8dc09df15e8ed21d78eb5be25f459baea75f0a285a74bcab4fda27e5f0308b64736f6c634300081e0033","opcodes":"PUSH1 0x80 PUSH1 0x40 MSTORE CALLVALUE DUP1 ISZERO PUSH1 0xE JUMPI PUSH0 PUSH0 REVERT JUMPDEST POP PUSH1 0x40 MLOAD PUSH2 0x10F9 CODESIZE SUB DUP1 PUSH2 0x10F9 DUP4 CODECOPY DUP2 ADD PUSH1 0x40 DUP2 SWAP1 MSTORE PUSH1 0x2B SWAP2 PUSH1 0xA7 JUMP JUMPDEST PUSH1 0x1 PUSH1 0x1 PUSH1 0xA0 SHL SUB DUP2 AND PUSH1 0x84 JUMPI PUSH1 0x40 MLOAD PUSH3 0x461BCD PUSH1 0xE5 SHL DUP2 MSTORE PUSH1 0x20 PUSH1 0x4 DUP3 ADD MSTORE PUSH1 0x17 PUSH1 0x24 DUP3 ADD MSTORE PUSH32 0x496E76616C696420706C6174666F726D2077616C6C6574000000000000000000 PUSH1 0x44 DUP3 ADD MSTORE PUSH1 0x64 ADD PUSH1 0x40 MLOAD DUP1 SWAP2 SUB SWAP1 REVERT JUMPDEST PUSH0 DUP1 SLOAD PUSH1 0x1 PUSH1 0x1 PUSH1 0xA0 SHL SUB NOT AND PUSH1 0x1 PUSH1 0x1 PUSH1 0xA0 SHL SUB SWAP3 SWAP1 SWAP3 AND SWAP2 SWAP1 SWAP2 OR SWAP1 SSTORE PUSH1 0xD2 JUMP JUMPDEST PUSH0 PUSH1 0x20 DUP3 DUP5 SUB SLT ISZERO PUSH1 0xB6 JUMPI PUSH0 PUSH0 REVERT JUMPDEST DUP2 MLOAD PUSH1 0x1 PUSH1 0x1 PUSH1 0xA0 SHL SUB DUP2 AND DUP2 EQ PUSH1 0xCB JUMPI PUSH0 PUSH0 REVERT JUMPDEST SWAP4 SWAP3 POP POP POP JUMP JUMPDEST PUSH2 0x101A DUP1 PUSH2 0xDF PUSH0 CODECOPY PUSH0 RETURN INVALID PUSH1 0x80 PUSH1 0x40 MSTORE CALLVALUE DUP1 ISZERO PUSH2 0xF JUMPI PUSH0 PUSH0 REVERT JUMPDEST POP PUSH1 0x4 CALLDATASIZE LT PUSH2 0xF0 JUMPI PUSH0 CALLDATALOAD PUSH1 0xE0 SHR DUP1 PUSH4 0x72731062 GT PUSH2 0x93 JUMPI DUP1 PUSH4 0xADA4EF30 GT PUSH2 0x63 JUMPI DUP1 PUSH4 0xADA4EF30 EQ PUSH2 0x2E7 JUMPI DUP1 PUSH4 0xBE1E8A2A EQ PUSH2 0x2FA JUMPI DUP1 PUSH4 0xC3C5A547 EQ PUSH2 0x325 JUMPI DUP1 PUSH4 0xFA2AF9DA EQ PUSH2 0x352 JUMPI PUSH0 PUSH0 REVERT JUMPDEST DUP1 PUSH4 0x72731062 EQ PUSH2 0x1D5 JUMPI DUP1 PUSH4 0x7BD8F49C EQ PUSH2 0x297 JUMPI DUP1 PUSH4 0x8456CB59 EQ PUSH2 0x2B7 JUMPI DUP1 PUSH4 0x87555C9F EQ PUSH2 0x2BF JUMPI PUSH0 PUSH0 REVERT JUMPDEST DUP1 PUSH4 0x3F4BA83A GT PUSH2 0xCE JUMPI DUP1 PUSH4 0x3F4BA83A EQ PUSH2 0x182 JUMPI DUP1 PUSH4 0x5C975ABB EQ PUSH2 0x18C JUMPI DUP1 PUSH4 0x69B15FCE EQ PUSH2 0x1AF JUMPI DUP1 PUSH4 0x6DF26D9A EQ PUSH2 0x1C2 JUMPI PUSH0 PUSH0 REVERT JUMPDEST DUP1 PUSH4 0x38DEFD7 EQ PUSH2 0xF4 JUMPI DUP1 PUSH4 0x31E8E39D EQ PUSH2 0x167 JUMPI DUP1 PUSH4 0x32454DBB EQ PUSH2 0x179 JUMPI JUMPDEST PUSH0 PUSH0 REVERT JUMPDEST PUSH2 0x137 PUSH2 0x102 CALLDATASIZE PUSH1 0x4 PUSH2 0xD9C JUMP JUMPDEST PUSH1 0x1 PUSH1 0x20 DUP2 SWAP1 MSTORE PUSH0 SWAP2 DUP3 MSTORE PUSH1 0x40 SWAP1 SWAP2 KECCAK256 DUP1 SLOAD SWAP2 DUP2 ADD SLOAD PUSH1 0x2 DUP3 ADD SLOAD PUSH1 0x3 SWAP1 SWAP3 ADD SLOAD PUSH1 0x1 PUSH1 0x1 PUSH1 0xA0 SHL SUB SWAP4 DUP5 AND SWAP4 SWAP1 SWAP2 AND SWAP2 SWAP1 DUP5 JUMP JUMPDEST PUSH1 0x40 DUP1 MLOAD PUSH1 0x1 PUSH1 0x1 PUSH1 0xA0 SHL SUB SWAP6 DUP7 AND DUP2 MSTORE SWAP5 SWAP1 SWAP4 AND PUSH1 0x20 DUP6 ADD MSTORE SWAP2 DUP4 ADD MSTORE PUSH1 0x60 DUP3 ADD MSTORE PUSH1 0x80 ADD JUMPDEST PUSH1 0x40 MLOAD DUP1 SWAP2 SUB SWAP1 RETURN JUMPDEST PUSH1 0x3 SLOAD JUMPDEST PUSH1 0x40 MLOAD SWAP1 DUP2 MSTORE PUSH1 0x20 ADD PUSH2 0x15E JUMP JUMPDEST PUSH2 0x16B PUSH1 0x3 SLOAD DUP2 JUMP JUMPDEST PUSH2 0x18A PUSH2 0x364 JUMP JUMPDEST STOP JUMPDEST PUSH0 SLOAD PUSH2 0x19F SWAP1 PUSH1 0x1 PUSH1 0xA0 SHL SWAP1 DIV PUSH1 0xFF AND DUP2 JUMP JUMPDEST PUSH1 0x40 MLOAD SWAP1 ISZERO ISZERO DUP2 MSTORE PUSH1 0x20 ADD PUSH2 0x15E JUMP JUMPDEST PUSH2 0x18A PUSH2 0x1BD CALLDATASIZE PUSH1 0x4 PUSH2 0xDBC JUMP JUMPDEST PUSH2 0x3D8 JUMP JUMPDEST PUSH2 0x18A PUSH2 0x1D0 CALLDATASIZE PUSH1 0x4 PUSH2 0xE3D JUMP JUMPDEST PUSH2 0x6D5 JUMP JUMPDEST PUSH2 0x256 PUSH2 0x1E3 CALLDATASIZE PUSH1 0x4 PUSH2 0xD9C JUMP JUMPDEST PUSH1 0x40 DUP1 MLOAD PUSH1 0x80 DUP2 ADD DUP3 MSTORE PUSH0 DUP1 DUP3 MSTORE PUSH1 0x20 DUP3 ADD DUP2 SWAP1 MSTORE SWAP2 DUP2 ADD DUP3 SWAP1 MSTORE PUSH1 0x60 DUP2 ADD SWAP2 SWAP1 SWAP2 MSTORE POP PUSH1 0x1 PUSH1 0x1 PUSH1 0xA0 SHL SUB SWAP1 DUP2 AND PUSH0 SWAP1 DUP2 MSTORE PUSH1 0x1 PUSH1 0x20 DUP2 DUP2 MSTORE PUSH1 0x40 SWAP3 DUP4 SWAP1 KECCAK256 DUP4 MLOAD PUSH1 0x80 DUP2 ADD DUP6 MSTORE DUP2 SLOAD DUP7 AND DUP2 MSTORE SWAP3 DUP2 ADD SLOAD SWAP1 SWAP5 AND SWAP1 DUP3 ADD MSTORE PUSH1 0x2 DUP4 ADD SLOAD SWAP2 DUP2 ADD SWAP2 SWAP1 SWAP2 MSTORE PUSH1 0x3 SWAP1 SWAP2 ADD SLOAD PUSH1 0x60 DUP3 ADD MSTORE SWAP1 JUMP JUMPDEST PUSH1 0x40 MLOAD PUSH2 0x15E SWAP2 SWAP1 DUP2 MLOAD PUSH1 0x1 PUSH1 0x1 PUSH1 0xA0 SHL SUB SWAP1 DUP2 AND DUP3 MSTORE PUSH1 0x20 DUP1 DUP5 ADD MLOAD SWAP1 SWAP2 AND SWAP1 DUP3 ADD MSTORE PUSH1 0x40 DUP1 DUP4 ADD MLOAD SWAP1 DUP3 ADD MSTORE PUSH1 0x60 SWAP2 DUP3 ADD MLOAD SWAP2 DUP2 ADD SWAP2 SWAP1 SWAP2 MSTORE PUSH1 0x80 ADD SWAP1 JUMP JUMPDEST PUSH2 0x2AA PUSH2 0x2A5 CALLDATASIZE PUSH1 0x4 PUSH2 0xD9C JUMP JUMPDEST PUSH2 0xBAC JUMP JUMPDEST PUSH1 0x40 MLOAD PUSH2 0x15E SWAP2 SWAP1 PUSH2 0xF0B JUMP JUMPDEST PUSH2 0x18A PUSH2 0xC1F JUMP JUMPDEST PUSH2 0x16B PUSH2 0x2CD CALLDATASIZE PUSH1 0x4 PUSH2 0xD9C JUMP JUMPDEST PUSH1 0x1 PUSH1 0x1 PUSH1 0xA0 SHL SUB AND PUSH0 SWAP1 DUP2 MSTORE PUSH1 0x2 PUSH1 0x20 MSTORE PUSH1 0x40 SWAP1 KECCAK256 SLOAD SWAP1 JUMP JUMPDEST PUSH2 0x18A PUSH2 0x2F5 CALLDATASIZE PUSH1 0x4 PUSH2 0xD9C JUMP JUMPDEST PUSH2 0xC8A JUMP JUMPDEST PUSH2 0x30D PUSH2 0x308 CALLDATASIZE PUSH1 0x4 PUSH2 0xF56 JUMP JUMPDEST PUSH2 0xD4D JUMP JUMPDEST PUSH1 0x40 MLOAD PUSH1 0x1 PUSH1 0x1 PUSH1 0xA0 SHL SUB SWAP1 SWAP2 AND DUP2 MSTORE PUSH1 0x20 ADD PUSH2 0x15E JUMP JUMPDEST PUSH2 0x19F PUSH2 0x333 CALLDATASIZE PUSH1 0x4 PUSH2 0xD9C JUMP JUMPDEST PUSH1 0x1 PUSH1 0x1 PUSH1 0xA0 SHL SUB SWAP1 DUP2 AND PUSH0 SWAP1 DUP2 MSTORE PUSH1 0x1 PUSH1 0x20 MSTORE PUSH1 0x40 SWAP1 KECCAK256 SLOAD AND ISZERO ISZERO SWAP1 JUMP JUMPDEST PUSH0 SLOAD PUSH2 0x30D SWAP1 PUSH1 0x1 PUSH1 0x1 PUSH1 0xA0 SHL SUB AND DUP2 JUMP JUMPDEST PUSH0 SLOAD PUSH1 0x1 PUSH1 0x1 PUSH1 0xA0 SHL SUB AND CALLER EQ PUSH2 0x396 JUMPI PUSH1 0x40 MLOAD PUSH3 0x461BCD PUSH1 0xE5 SHL DUP2 MSTORE PUSH1 0x4 ADD PUSH2 0x38D SWAP1 PUSH2 0xF7E JUMP JUMPDEST PUSH1 0x40 MLOAD DUP1 SWAP2 SUB SWAP1 REVERT JUMPDEST PUSH0 DUP1 SLOAD PUSH1 0xFF PUSH1 0xA0 SHL NOT AND SWAP1 SSTORE PUSH1 0x40 MLOAD CALLER DUP2 MSTORE PUSH32 0x5DB9EE0A495BF2E6FF9C91A7834C1BA4FDD244A5E8AA4E537BD38AEAE4B073AA SWAP1 PUSH1 0x20 ADD JUMPDEST PUSH1 0x40 MLOAD DUP1 SWAP2 SUB SWAP1 LOG1 JUMP JUMPDEST PUSH0 SLOAD PUSH1 0x1 PUSH1 0x1 PUSH1 0xA0 SHL SUB AND CALLER EQ PUSH2 0x401 JUMPI PUSH1 0x40 MLOAD PUSH3 0x461BCD PUSH1 0xE5 SHL DUP2 MSTORE PUSH1 0x4 ADD PUSH2 0x38D SWAP1 PUSH2 0xF7E JUMP JUMPDEST PUSH0 SLOAD PUSH1 0x1 PUSH1 0xA0 SHL SWAP1 DIV PUSH1 0xFF AND ISZERO PUSH2 0x44F JUMPI PUSH1 0x40 MLOAD PUSH3 0x461BCD PUSH1 0xE5 SHL DUP2 MSTORE PUSH1 0x20 PUSH1 0x4 DUP3 ADD MSTORE PUSH1 0x12 PUSH1 0x24 DUP3 ADD MSTORE PUSH18 0x10DBDB9D1C9858DD081A5CC81C185D5CD959 PUSH1 0x72 SHL PUSH1 0x44 DUP3 ADD MSTORE PUSH1 0x64 ADD PUSH2 0x38D JUMP JUMPDEST PUSH1 0x1 PUSH1 0x1 PUSH1 0xA0 SHL SUB DUP4 AND PUSH2 0x4A5 JUMPI PUSH1 0x40 MLOAD PUSH3 0x461BCD PUSH1 0xE5 SHL DUP2 MSTORE PUSH1 0x20 PUSH1 0x4 DUP3 ADD MSTORE PUSH1 0x17 PUSH1 0x24 DUP3 ADD MSTORE PUSH32 0x496E76616C69642063726561746F722061646472657373000000000000000000 PUSH1 0x44 DUP3 ADD MSTORE PUSH1 0x64 ADD PUSH2 0x38D JUMP JUMPDEST PUSH1 0x1 PUSH1 0x1 PUSH1 0xA0 SHL SUB DUP3 AND PUSH2 0x4FB JUMPI PUSH1 0x40 MLOAD PUSH3 0x461BCD PUSH1 0xE5 SHL DUP2 MSTORE PUSH1 0x20 PUSH1 0x4 DUP3 ADD MSTORE PUSH1 0x18 PUSH1 0x24 DUP3 ADD MSTORE PUSH32 0x496E76616C696420636F6E747261637420616464726573730000000000000000 PUSH1 0x44 DUP3 ADD MSTORE PUSH1 0x64 ADD PUSH2 0x38D JUMP JUMPDEST DUP2 EXTCODESIZE PUSH2 0x53A JUMPI PUSH1 0x40 MLOAD PUSH3 0x461BCD PUSH1 0xE5 SHL DUP2 MSTORE PUSH1 0x20 PUSH1 0x4 DUP3 ADD MSTORE PUSH1 0xE PUSH1 0x24 DUP3 ADD MSTORE PUSH14 0x139BDD08184818DBDB9D1C9858DD PUSH1 0x92 SHL PUSH1 0x44 DUP3 ADD MSTORE PUSH1 0x64 ADD PUSH2 0x38D JUMP JUMPDEST PUSH1 0x1 PUSH1 0x1 PUSH1 0xA0 SHL SUB DUP3 DUP2 AND PUSH0 SWAP1 DUP2 MSTORE PUSH1 0x1 PUSH1 0x20 MSTORE PUSH1 0x40 SWAP1 KECCAK256 SLOAD AND ISZERO PUSH2 0x596 JUMPI PUSH1 0x40 MLOAD PUSH3 0x461BCD PUSH1 0xE5 SHL DUP2 MSTORE PUSH1 0x20 PUSH1 0x4 DUP3 ADD MSTORE PUSH1 0x12 PUSH1 0x24 DUP3 ADD MSTORE PUSH18 0x105B1C9958591E481C9959DA5CDD195C9959 PUSH1 0x72 SHL PUSH1 0x44 DUP3 ADD MSTORE PUSH1 0x64 ADD PUSH2 0x38D JUMP JUMPDEST PUSH1 0x40 DUP1 MLOAD PUSH1 0x80 DUP2 ADD DUP3 MSTORE PUSH1 0x1 PUSH1 0x1 PUSH1 0xA0 SHL SUB DUP1 DUP7 AND DUP1 DUP4 MSTORE DUP6 DUP3 AND PUSH1 0x20 DUP1 DUP6 ADD DUP3 DUP2 MSTORE TIMESTAMP DUP7 DUP9 ADD SWAP1 DUP2 MSTORE PUSH1 0x60 DUP8 ADD DUP10 DUP2 MSTORE PUSH0 DUP6 DUP2 MSTORE PUSH1 0x1 DUP1 DUP7 MSTORE DUP11 DUP3 KECCAK256 SWAP10 MLOAD DUP11 SLOAD SWAP1 DUP11 AND PUSH1 0x1 PUSH1 0x1 PUSH1 0xA0 SHL SUB NOT SWAP2 DUP3 AND OR DUP12 SSTORE SWAP5 MLOAD DUP11 DUP3 ADD DUP1 SLOAD SWAP2 SWAP1 SWAP11 AND SWAP1 DUP7 AND OR SWAP1 SWAP9 SSTORE SWAP2 MLOAD PUSH1 0x2 DUP1 DUP11 ADD SWAP2 SWAP1 SWAP2 SSTORE SWAP1 MLOAD PUSH1 0x3 SWAP1 SWAP9 ADD SWAP8 SWAP1 SWAP8 SSTORE DUP5 DUP2 MSTORE SWAP6 DUP3 MSTORE DUP7 DUP7 KECCAK256 DUP1 SLOAD SWAP6 DUP7 ADD DUP2 SSTORE DUP7 MSTORE DUP2 DUP7 KECCAK256 SWAP1 SWAP5 ADD DUP1 SLOAD SWAP1 SWAP5 AND SWAP1 SWAP2 OR SWAP1 SWAP3 SSTORE DUP3 MSTORE PUSH1 0x4 SWAP1 MSTORE KECCAK256 SLOAD PUSH1 0xFF AND PUSH2 0x666 JUMPI PUSH1 0x1 PUSH1 0x1 PUSH1 0xA0 SHL SUB DUP4 AND PUSH0 SWAP1 DUP2 MSTORE PUSH1 0x4 PUSH1 0x20 MSTORE PUSH1 0x40 SWAP1 KECCAK256 DUP1 SLOAD PUSH1 0xFF NOT AND PUSH1 0x1 OR SWAP1 SSTORE JUMPDEST PUSH1 0x3 DUP1 SLOAD SWAP1 PUSH0 PUSH2 0x675 DUP4 PUSH2 0xFAC JUMP JUMPDEST SWAP2 SWAP1 POP SSTORE POP DUP2 PUSH1 0x1 PUSH1 0x1 PUSH1 0xA0 SHL SUB AND DUP4 PUSH1 0x1 PUSH1 0x1 PUSH1 0xA0 SHL SUB AND PUSH32 0x78824CCFE90DC08464C188DACB5DF6E135F9DBFE4C057419DE87AE6359BCEB65 TIMESTAMP DUP5 PUSH1 0x40 MLOAD PUSH2 0x6C8 SWAP3 SWAP2 SWAP1 SWAP2 DUP3 MSTORE PUSH1 0x20 DUP3 ADD MSTORE PUSH1 0x40 ADD SWAP1 JUMP JUMPDEST PUSH1 0x40 MLOAD DUP1 SWAP2 SUB SWAP1 LOG3 POP POP POP JUMP JUMPDEST PUSH0 SLOAD PUSH1 0x1 PUSH1 0x1 PUSH1 0xA0 SHL SUB AND CALLER EQ PUSH2 0x6FE JUMPI PUSH1 0x40 MLOAD PUSH3 0x461BCD PUSH1 0xE5 SHL DUP2 MSTORE PUSH1 0x4 ADD PUSH2 0x38D SWAP1 PUSH2 0xF7E JUMP JUMPDEST PUSH0 SLOAD PUSH1 0x1 PUSH1 0xA0 SHL SWAP1 DIV PUSH1 0xFF AND ISZERO PUSH2 0x74C JUMPI PUSH1 0x40 MLOAD PUSH3 0x461BCD PUSH1 0xE5 SHL DUP2 MSTORE PUSH1 0x20 PUSH1 0x4 DUP3 ADD MSTORE PUSH1 0x12 PUSH1 0x24 DUP3 ADD MSTORE PUSH18 0x10DBDB9D1C9858DD081A5CC81C185D5CD959 PUSH1 0x72 SHL PUSH1 0x44 DUP3 ADD MSTORE PUSH1 0x64 ADD PUSH2 0x38D JUMP JUMPDEST DUP7 DUP6 EQ DUP1 ISZERO PUSH2 0x75A JUMPI POP DUP7 DUP4 EQ JUMPDEST DUP1 ISZERO PUSH2 0x765 JUMPI POP DUP7 DUP2 EQ JUMPDEST PUSH2 0x7A9 JUMPI PUSH1 0x40 MLOAD PUSH3 0x461BCD PUSH1 0xE5 SHL DUP2 MSTORE PUSH1 0x20 PUSH1 0x4 DUP3 ADD MSTORE PUSH1 0x15 PUSH1 0x24 DUP3 ADD MSTORE PUSH21 0x82E4E4C2F240D8CADCCEE8D040DAD2E6DAC2E8C6D PUSH1 0x5B SHL PUSH1 0x44 DUP3 ADD MSTORE PUSH1 0x64 ADD PUSH2 0x38D JUMP JUMPDEST DUP7 PUSH2 0x7E5 JUMPI PUSH1 0x40 MLOAD PUSH3 0x461BCD PUSH1 0xE5 SHL DUP2 MSTORE PUSH1 0x20 PUSH1 0x4 DUP3 ADD MSTORE PUSH1 0xC PUSH1 0x24 DUP3 ADD MSTORE PUSH12 0x456D70747920617272617973 PUSH1 0xA0 SHL PUSH1 0x44 DUP3 ADD MSTORE PUSH1 0x64 ADD PUSH2 0x38D JUMP JUMPDEST PUSH1 0x64 DUP8 GT ISZERO PUSH2 0x828 JUMPI PUSH1 0x40 MLOAD PUSH3 0x461BCD PUSH1 0xE5 SHL DUP2 MSTORE PUSH1 0x20 PUSH1 0x4 DUP3 ADD MSTORE PUSH1 0xF PUSH1 0x24 DUP3 ADD MSTORE PUSH15 0x426174636820746F6F206C61726765 PUSH1 0x88 SHL PUSH1 0x44 DUP3 ADD MSTORE PUSH1 0x64 ADD PUSH2 0x38D JUMP JUMPDEST PUSH0 DUP1 JUMPDEST DUP9 DUP2 LT ISZERO PUSH2 0xB68 JUMPI PUSH0 DUP11 DUP11 DUP4 DUP2 DUP2 LT PUSH2 0x846 JUMPI PUSH2 0x846 PUSH2 0xFD0 JUMP JUMPDEST SWAP1 POP PUSH1 0x20 MUL ADD PUSH1 0x20 DUP2 ADD SWAP1 PUSH2 0x85B SWAP2 SWAP1 PUSH2 0xD9C JUMP JUMPDEST SWAP1 POP PUSH0 DUP10 DUP10 DUP5 DUP2 DUP2 LT PUSH2 0x870 JUMPI PUSH2 0x870 PUSH2 0xFD0 JUMP JUMPDEST SWAP1 POP PUSH1 0x20 MUL ADD PUSH1 0x20 DUP2 ADD SWAP1 PUSH2 0x885 SWAP2 SWAP1 PUSH2 0xD9C JUMP JUMPDEST SWAP1 POP PUSH0 DUP9 DUP9 DUP6 DUP2 DUP2 LT PUSH2 0x89A JUMPI PUSH2 0x89A PUSH2 0xFD0 JUMP JUMPDEST SWAP1 POP PUSH1 0x20 MUL ADD CALLDATALOAD SWAP1 POP PUSH0 DUP8 DUP8 DUP7 DUP2 DUP2 LT PUSH2 0x8B6 JUMPI PUSH2 0x8B6 PUSH2 0xFD0 JUMP JUMPDEST PUSH1 0x20 MUL SWAP2 SWAP1 SWAP2 ADD CALLDATALOAD SWAP2 POP POP PUSH1 0x1 PUSH1 0x1 PUSH1 0xA0 SHL SUB DUP5 AND PUSH2 0x909 JUMPI PUSH1 0x40 MLOAD PUSH3 0x461BCD PUSH1 0xE5 SHL DUP2 MSTORE PUSH1 0x20 PUSH1 0x4 DUP3 ADD MSTORE PUSH1 0xF PUSH1 0x24 DUP3 ADD MSTORE PUSH15 0x24B73B30B634B21031B932B0BA37B9 PUSH1 0x89 SHL PUSH1 0x44 DUP3 ADD MSTORE PUSH1 0x64 ADD PUSH2 0x38D JUMP JUMPDEST PUSH1 0x1 PUSH1 0x1 PUSH1 0xA0 SHL SUB DUP4 AND PUSH2 0x952 JUMPI PUSH1 0x40 MLOAD PUSH3 0x461BCD PUSH1 0xE5 SHL DUP2 MSTORE PUSH1 0x20 PUSH1 0x4 DUP3 ADD MSTORE PUSH1 0x10 PUSH1 0x24 DUP3 ADD MSTORE PUSH16 0x125B9D985B1A590818DBDB9D1C9858DD PUSH1 0x82 SHL PUSH1 0x44 DUP3 ADD MSTORE PUSH1 0x64 ADD PUSH2 0x38D JUMP JUMPDEST DUP3 EXTCODESIZE PUSH2 0x991 JUMPI PUSH1 0x40 MLOAD PUSH3 0x461BCD PUSH1 0xE5 SHL DUP2 MSTORE PUSH1 0x20 PUSH1 0x4 DUP3 ADD MSTORE PUSH1 0xE PUSH1 0x24 DUP3 ADD MSTORE PUSH14 0x139BDD08184818DBDB9D1C9858DD PUSH1 0x92 SHL PUSH1 0x44 DUP3 ADD MSTORE PUSH1 0x64 ADD PUSH2 0x38D JUMP JUMPDEST PUSH0 DUP2 GT DUP1 ISZERO PUSH2 0x9A0 JUMPI POP TIMESTAMP DUP2 GT ISZERO JUMPDEST PUSH2 0x9EC JUMPI PUSH1 0x40 MLOAD PUSH3 0x461BCD PUSH1 0xE5 SHL DUP2 MSTORE PUSH1 0x20 PUSH1 0x4 DUP3 ADD MSTORE PUSH1 0x1A PUSH1 0x24 DUP3 ADD MSTORE PUSH32 0x496E76616C6964206372656174696F6E2074696D657374616D70000000000000 PUSH1 0x44 DUP3 ADD MSTORE PUSH1 0x64 ADD PUSH2 0x38D JUMP JUMPDEST PUSH1 0x1 PUSH1 0x1 PUSH1 0xA0 SHL SUB DUP4 DUP2 AND PUSH0 SWAP1 DUP2 MSTORE PUSH1 0x1 PUSH1 0x20 MSTORE PUSH1 0x40 SWAP1 KECCAK256 SLOAD AND ISZERO PUSH2 0xA14 JUMPI POP POP POP POP PUSH2 0xB60 JUMP JUMPDEST PUSH1 0x40 DUP1 MLOAD PUSH1 0x80 DUP2 ADD DUP3 MSTORE PUSH1 0x1 PUSH1 0x1 PUSH1 0xA0 SHL SUB DUP1 DUP8 AND DUP1 DUP4 MSTORE DUP7 DUP3 AND PUSH1 0x20 DUP1 DUP6 ADD DUP3 DUP2 MSTORE DUP6 DUP8 ADD DUP9 DUP2 MSTORE PUSH1 0x60 DUP8 ADD DUP11 DUP2 MSTORE PUSH0 DUP6 DUP2 MSTORE PUSH1 0x1 DUP1 DUP7 MSTORE DUP11 DUP3 KECCAK256 SWAP10 MLOAD DUP11 SLOAD SWAP1 DUP11 AND PUSH1 0x1 PUSH1 0x1 PUSH1 0xA0 SHL SUB NOT SWAP2 DUP3 AND OR DUP12 SSTORE SWAP5 MLOAD DUP11 DUP3 ADD DUP1 SLOAD SWAP2 SWAP1 SWAP11 AND SWAP1 DUP7 AND OR SWAP1 SWAP9 SSTORE SWAP2 MLOAD PUSH1 0x2 DUP1 DUP11 ADD SWAP2 SWAP1 SWAP2 SSTORE SWAP1 MLOAD PUSH1 0x3 SWAP1 SWAP9 ADD SWAP8 SWAP1 SWAP8 SSTORE DUP5 DUP2 MSTORE SWAP6 DUP3 MSTORE DUP7 DUP7 KECCAK256 DUP1 SLOAD SWAP6 DUP7 ADD DUP2 SSTORE DUP7 MSTORE DUP2 DUP7 KECCAK256 SWAP1 SWAP5 ADD DUP1 SLOAD SWAP1 SWAP5 AND SWAP1 SWAP2 OR SWAP1 SWAP3 SSTORE DUP3 MSTORE PUSH1 0x4 SWAP1 MSTORE KECCAK256 SLOAD PUSH1 0xFF AND PUSH2 0xAE3 JUMPI PUSH1 0x1 PUSH1 0x1 PUSH1 0xA0 SHL SUB DUP5 AND PUSH0 SWAP1 DUP2 MSTORE PUSH1 0x4 PUSH1 0x20 MSTORE PUSH1 0x40 SWAP1 KECCAK256 DUP1 SLOAD PUSH1 0xFF NOT AND PUSH1 0x1 OR SWAP1 SSTORE JUMPDEST PUSH1 0x3 DUP1 SLOAD SWAP1 PUSH0 PUSH2 0xAF2 DUP4 PUSH2 0xFAC JUMP JUMPDEST SWAP2 SWAP1 POP SSTORE POP DUP6 DUP1 PUSH2 0xB02 SWAP1 PUSH2 0xFAC JUMP JUMPDEST SWAP7 POP POP DUP3 PUSH1 0x1 PUSH1 0x1 PUSH1 0xA0 SHL SUB AND DUP5 PUSH1 0x1 PUSH1 0x1 PUSH1 0xA0 SHL SUB AND PUSH32 0x78824CCFE90DC08464C188DACB5DF6E135F9DBFE4C057419DE87AE6359BCEB65 DUP4 DUP6 PUSH1 0x40 MLOAD PUSH2 0xB53 SWAP3 SWAP2 SWAP1 SWAP2 DUP3 MSTORE PUSH1 0x20 DUP3 ADD MSTORE PUSH1 0x40 ADD SWAP1 JUMP JUMPDEST PUSH1 0x40 MLOAD DUP1 SWAP2 SUB SWAP1 LOG3 POP POP POP POP JUMPDEST PUSH1 0x1 ADD PUSH2 0x82B JUMP JUMPDEST POP PUSH1 0x40 DUP1 MLOAD DUP3 DUP2 MSTORE TIMESTAMP PUSH1 0x20 DUP3 ADD MSTORE PUSH32 0x5147E56F82DD95B39D986545D47FCC2F02EBE9938671C93E73EC1F28404CEF7D SWAP2 ADD PUSH1 0x40 MLOAD DUP1 SWAP2 SUB SWAP1 LOG1 POP POP POP POP POP POP POP POP POP JUMP JUMPDEST PUSH1 0x1 PUSH1 0x1 PUSH1 0xA0 SHL SUB DUP2 AND PUSH0 SWAP1 DUP2 MSTORE PUSH1 0x2 PUSH1 0x20 SWAP1 DUP2 MSTORE PUSH1 0x40 SWAP2 DUP3 SWAP1 KECCAK256 DUP1 SLOAD DUP4 MLOAD DUP2 DUP5 MUL DUP2 ADD DUP5 ADD SWAP1 SWAP5 MSTORE DUP1 DUP5 MSTORE PUSH1 0x60 SWAP4 SWAP3 DUP4 ADD DUP3 DUP3 DUP1 ISZERO PUSH2 0xC13 JUMPI PUSH1 0x20 MUL DUP3 ADD SWAP2 SWAP1 PUSH0 MSTORE PUSH1 0x20 PUSH0 KECCAK256 SWAP1 JUMPDEST DUP2 SLOAD PUSH1 0x1 PUSH1 0x1 PUSH1 0xA0 SHL SUB AND DUP2 MSTORE PUSH1 0x1 SWAP1 SWAP2 ADD SWAP1 PUSH1 0x20 ADD DUP1 DUP4 GT PUSH2 0xBF5 JUMPI JUMPDEST POP POP POP POP POP SWAP1 POP SWAP2 SWAP1 POP JUMP JUMPDEST PUSH0 SLOAD PUSH1 0x1 PUSH1 0x1 PUSH1 0xA0 SHL SUB AND CALLER EQ PUSH2 0xC48 JUMPI PUSH1 0x40 MLOAD PUSH3 0x461BCD PUSH1 0xE5 SHL DUP2 MSTORE PUSH1 0x4 ADD PUSH2 0x38D SWAP1 PUSH2 0xF7E JUMP JUMPDEST PUSH0 DUP1 SLOAD PUSH1 0xFF PUSH1 0xA0 SHL NOT AND PUSH1 0x1 PUSH1 0xA0 SHL OR SWAP1 SSTORE PUSH1 0x40 MLOAD CALLER DUP2 MSTORE PUSH32 0x62E78CEA01BEE320CD4E420270B5EA74000D11B0C9F74754EBDBFC544B05A258 SWAP1 PUSH1 0x20 ADD PUSH2 0x3CE JUMP JUMPDEST PUSH0 SLOAD PUSH1 0x1 PUSH1 0x1 PUSH1 0xA0 SHL SUB AND CALLER EQ PUSH2 0xCB3 JUMPI PUSH1 0x40 MLOAD PUSH3 0x461BCD PUSH1 0xE5 SHL DUP2 MSTORE PUSH1 0x4 ADD PUSH2 0x38D SWAP1 PUSH2 0xF7E JUMP JUMPDEST PUSH1 0x1 PUSH1 0x1 PUSH1 0xA0 SHL SUB DUP2 AND PUSH2 0xCFE JUMPI PUSH1 0x40 MLOAD PUSH3 0x461BCD PUSH1 0xE5 SHL DUP2 MSTORE PUSH1 0x20 PUSH1 0x4 DUP3 ADD MSTORE PUSH1 0x12 PUSH1 0x24 DUP3 ADD MSTORE PUSH18 0x125B9D985B1A59081B995DC81DD85B1B195D PUSH1 0x72 SHL PUSH1 0x44 DUP3 ADD MSTORE PUSH1 0x64 ADD PUSH2 0x38D JUMP JUMPDEST PUSH0 DUP1 SLOAD PUSH1 0x1 PUSH1 0x1 PUSH1 0xA0 SHL SUB DUP4 DUP2 AND PUSH1 0x1 PUSH1 0x1 PUSH1 0xA0 SHL SUB NOT DUP4 AND DUP2 OR DUP5 SSTORE PUSH1 0x40 MLOAD SWAP2 SWAP1 SWAP3 AND SWAP3 DUP4 SWAP2 PUSH32 0xF84F6B525C89A18C80BBBC0C62A7EB5390956D6B8432AB067B49963A98F8C38F SWAP2 SWAP1 LOG3 POP POP JUMP JUMPDEST PUSH1 0x2 PUSH1 0x20 MSTORE DUP2 PUSH0 MSTORE PUSH1 0x40 PUSH0 KECCAK256 DUP2 DUP2 SLOAD DUP2 LT PUSH2 0xD66 JUMPI PUSH0 DUP1 REVERT JUMPDEST PUSH0 SWAP2 DUP3 MSTORE PUSH1 0x20 SWAP1 SWAP2 KECCAK256 ADD SLOAD PUSH1 0x1 PUSH1 0x1 PUSH1 0xA0 SHL SUB AND SWAP2 POP DUP3 SWAP1 POP JUMP JUMPDEST DUP1 CALLDATALOAD PUSH1 0x1 PUSH1 0x1 PUSH1 0xA0 SHL SUB DUP2 AND DUP2 EQ PUSH2 0xD97 JUMPI PUSH0 PUSH0 REVERT JUMPDEST SWAP2 SWAP1 POP JUMP JUMPDEST PUSH0 PUSH1 0x20 DUP3 DUP5 SUB SLT ISZERO PUSH2 0xDAC JUMPI PUSH0 PUSH0 REVERT JUMPDEST PUSH2 0xDB5 DUP3 PUSH2 0xD81 JUMP JUMPDEST SWAP4 SWAP3 POP POP POP JUMP JUMPDEST PUSH0 PUSH0 PUSH0 PUSH1 0x60 DUP5 DUP7 SUB SLT ISZERO PUSH2 0xDCE JUMPI PUSH0 PUSH0 REVERT JUMPDEST PUSH2 0xDD7 DUP5 PUSH2 0xD81 JUMP JUMPDEST SWAP3 POP PUSH2 0xDE5 PUSH1 0x20 DUP6 ADD PUSH2 0xD81 JUMP JUMPDEST SWAP2 POP PUSH1 0x40 DUP5 ADD CALLDATALOAD SWAP1 POP SWAP3 POP SWAP3 POP SWAP3 JUMP JUMPDEST PUSH0 PUSH0 DUP4 PUSH1 0x1F DUP5 ADD SLT PUSH2 0xE05 JUMPI PUSH0 PUSH0 REVERT JUMPDEST POP DUP2 CALLDATALOAD PUSH8 0xFFFFFFFFFFFFFFFF DUP2 GT ISZERO PUSH2 0xE1C JUMPI PUSH0 PUSH0 REVERT JUMPDEST PUSH1 0x20 DUP4 ADD SWAP2 POP DUP4 PUSH1 0x20 DUP3 PUSH1 0x5 SHL DUP6 ADD ADD GT ISZERO PUSH2 0xE36 JUMPI PUSH0 PUSH0 REVERT JUMPDEST SWAP3 POP SWAP3 SWAP1 POP JUMP JUMPDEST PUSH0 PUSH0 PUSH0 PUSH0 PUSH0 PUSH0 PUSH0 PUSH0 PUSH1 0x80 DUP10 DUP12 SUB SLT ISZERO PUSH2 0xE54 JUMPI PUSH0 PUSH0 REVERT JUMPDEST DUP9 CALLDATALOAD PUSH8 0xFFFFFFFFFFFFFFFF DUP2 GT ISZERO PUSH2 0xE6A JUMPI PUSH0 PUSH0 REVERT JUMPDEST PUSH2 0xE76 DUP12 DUP3 DUP13 ADD PUSH2 0xDF5 JUMP JUMPDEST SWAP1 SWAP10 POP SWAP8 POP POP PUSH1 0x20 DUP10 ADD CALLDATALOAD PUSH8 0xFFFFFFFFFFFFFFFF DUP2 GT ISZERO PUSH2 0xE95 JUMPI PUSH0 PUSH0 REVERT JUMPDEST PUSH2 0xEA1 DUP12 DUP3 DUP13 ADD PUSH2 0xDF5 JUMP JUMPDEST SWAP1 SWAP8 POP SWAP6 POP POP PUSH1 0x40 DUP10 ADD CALLDATALOAD PUSH8 0xFFFFFFFFFFFFFFFF DUP2 GT ISZERO PUSH2 0xEC0 JUMPI PUSH0 PUSH0 REVERT JUMPDEST PUSH2 0xECC DUP12 DUP3 DUP13 ADD PUSH2 0xDF5 JUMP JUMPDEST SWAP1 SWAP6 POP SWAP4 POP POP PUSH1 0x60 DUP10 ADD CALLDATALOAD PUSH8 0xFFFFFFFFFFFFFFFF DUP2 GT ISZERO PUSH2 0xEEB JUMPI PUSH0 PUSH0 REVERT JUMPDEST PUSH2 0xEF7 DUP12 DUP3 DUP13 ADD PUSH2 0xDF5 JUMP JUMPDEST SWAP10 SWAP13 SWAP9 SWAP12 POP SWAP7 SWAP10 POP SWAP5 SWAP8 SWAP4 SWAP7 SWAP3 SWAP6 SWAP5 POP POP POP JUMP JUMPDEST PUSH1 0x20 DUP1 DUP3 MSTORE DUP3 MLOAD DUP3 DUP3 ADD DUP2 SWAP1 MSTORE PUSH0 SWAP2 DUP5 ADD SWAP1 PUSH1 0x40 DUP5 ADD SWAP1 DUP4 JUMPDEST DUP2 DUP2 LT ISZERO PUSH2 0xF4B JUMPI DUP4 MLOAD PUSH1 0x1 PUSH1 0x1 PUSH1 0xA0 SHL SUB AND DUP4 MSTORE PUSH1 0x20 SWAP4 DUP5 ADD SWAP4 SWAP1 SWAP3 ADD SWAP2 PUSH1 0x1 ADD PUSH2 0xF24 JUMP JUMPDEST POP SWAP1 SWAP6 SWAP5 POP POP POP POP POP JUMP JUMPDEST PUSH0 PUSH0 PUSH1 0x40 DUP4 DUP6 SUB SLT ISZERO PUSH2 0xF67 JUMPI PUSH0 PUSH0 REVERT JUMPDEST PUSH2 0xF70 DUP4 PUSH2 0xD81 JUMP JUMPDEST SWAP5 PUSH1 0x20 SWAP4 SWAP1 SWAP4 ADD CALLDATALOAD SWAP4 POP POP POP JUMP JUMPDEST PUSH1 0x20 DUP1 DUP3 MSTORE PUSH1 0x14 SWAP1 DUP3 ADD MSTORE PUSH20 0x13DB9B1E481C1B185D199BDC9B481DD85B1B195D PUSH1 0x62 SHL PUSH1 0x40 DUP3 ADD MSTORE PUSH1 0x60 ADD SWAP1 JUMP JUMPDEST PUSH0 PUSH1 0x1 DUP3 ADD PUSH2 0xFC9 JUMPI PUSH4 0x4E487B71 PUSH1 0xE0 SHL PUSH0 MSTORE PUSH1 0x11 PUSH1 0x4 MSTORE PUSH1 0x24 PUSH0 REVERT JUMPDEST POP PUSH1 0x1 ADD SWAP1 JUMP JUMPDEST PUSH4 0x4E487B71 PUSH1 0xE0 SHL PUSH0 MSTORE PUSH1 0x32 PUSH1 0x4 MSTORE PUSH1 0x24 PUSH0 REVERT INVALID LOG2 PUSH5 0x6970667358 0x22 SLT KECCAK256 GAS DUP14 0xC0 SWAP14 CALL MCOPY DUP15 0xD2 SAR PUSH25 0xEB5BE25F459BAEA75F0A285A74BCAB4FDA27E5F0308B64736F PUSH13 0x634300081E0033000000000000 "},"methodIdentifiers":{"batchRegister(address[],address[],bytes32[],uint256[])":"6df26d9a","getRegistration(address)":"72731062","getTotalCreators()":"31e8e39d","getUserCoinCount(address)":"87555c9f","getUserCoins(address)":"7bd8f49c","isRegistered(address)":"c3c5a547","pause()":"8456cb59","paused()":"5c975abb","platformWallet()":"fa2af9da","register(address,address,bytes32)":"69b15fce","registry(address)":"038defd7","totalCoins()":"32454dbb","unpause()":"3f4ba83a","updatePlatformWallet(address)":"ada4ef30","userCoins(address,uint256)":"be1e8a2a"}}}}}