{
  "_format": "hh-sol-artifact-1",
  "contractName": "CoinRegistry",
  "sourceName": "contracts/CoinRegistry.sol",
  "abi": [
    {
      "inputs": [
        {
          "internalType": "address",
          "name": "_platformWallet",
          "type": "address"
        }
      ],
      "stateMutability": "nonpayable",
      "type": "constructor"
    },
    {
      "anonymous": false,
      "inputs": [
        {
          "indexed": false,
          "internalType": "uint256",
          "name": "count",
          "type": "uint256"
        },
        {
          "indexed": false,
          "internalType": "uint256",
          "name": "timestamp",
          "type": "uint256"
        }
      ],
      "name": "BatchRegistered",
      "type": "event"
    },
    {
      "anonymous": false,
      "inputs": [
        {
          "indexed": true,
          "internalType": "address",
          "name": "creator",
          "type": "address"
        },
        {
          "indexed": true,
          "internalType": "address",
          "name": "zoraContract",
          "type": "address"
        },
        {
          "indexed": false,
          "internalType": "uint256",
          "name": "timestamp",
          "type": "uint256"
        },
        {
          "indexed": false,
          "internalType": "bytes32",
          "name": "txHash",
          "type": "bytes32"
        }
      ],
      "name": "CoinRegistered",
      "type": "event"
    },
    {
      "anonymous": false,
      "inputs": [
        {
          "indexed": false,
          "internalType": "address",
          "name": "account",
          "type": "address"
        }
      ],
      "name": "Paused",
      "type": "event"
    },
    {
      "anonymous": false,
      "inputs": [
        {
          "indexed": true,
          "internalType": "address",
          "name": "oldWallet",
          "type": "address"
        },
        {
          "indexed": true,
          "internalType": "address",
          "name": "newWallet",
          "type": "address"
        }
      ],
      "name": "PlatformWalletUpdated",
      "type": "event"
    },
    {
      "anonymous": false,
      "inputs": [
        {
          "indexed": false,
          "internalType": "address",
          "name": "account",
          "type": "address"
        }
      ],
      "name": "Unpaused",
      "type": "event"
    },
    {
      "inputs": [
        {
          "internalType": "address[]",
          "name": "creators",
          "type": "address[]"
        },
        {
          "internalType": "address[]",
          "name": "zoraContracts",
          "type": "address[]"
        },
        {
          "internalType": "bytes32[]",
          "name": "txHashes",
          "type": "bytes32[]"
        }
      ],
      "name": "batchRegister",
      "outputs": [],
      "stateMutability": "nonpayable",
      "type": "function"
    },
    {
      "inputs": [
        {
          "internalType": "address",
          "name": "zoraContract",
          "type": "address"
        }
      ],
      "name": "getRegistration",
      "outputs": [
        {
          "components": [
            {
              "internalType": "address",
              "name": "creator",
              "type": "address"
            },
            {
              "internalType": "address",
              "name": "zoraContract",
              "type": "address"
            },
            {
              "internalType": "uint256",
              "name": "timestamp",
              "type": "uint256"
            },
            {
              "internalType": "bytes32",
              "name": "txHash",
              "type": "bytes32"
            }
          ],
          "internalType": "struct CoinRegistry.CoinRegistration",
          "name": "",
          "type": "tuple"
        }
      ],
      "stateMutability": "view",
      "type": "function"
    },
    {
      "inputs": [],
      "name": "getTotalCreators",
      "outputs": [
        {
          "internalType": "uint256",
          "name": "",
          "type": "uint256"
        }
      ],
      "stateMutability": "view",
      "type": "function"
    },
    {
      "inputs": [
        {
          "internalType": "address",
          "name": "creator",
          "type": "address"
        }
      ],
      "name": "getUserCoinCount",
      "outputs": [
        {
          "internalType": "uint256",
          "name": "",
          "type": "uint256"
        }
      ],
      "stateMutability": "view",
      "type": "function"
    },
    {
      "inputs": [
        {
          "internalType": "address",
          "name": "creator",
          "type": "address"
        }
      ],
      "name": "getUserCoins",
      "outputs": [
        {
          "internalType": "address[]",
          "name": "",
          "type": "address[]"
        }
      ],
      "stateMutability": "view",
      "type": "function"
    },
    {
      "inputs": [
        {
          "internalType": "address",
          "name": "zoraContract",
          "type": "address"
        }
      ],
      "name": "isRegistered",
      "outputs": [
        {
          "internalType": "bool",
          "name": "",
          "type": "bool"
        }
      ],
      "stateMutability": "view",
      "type": "function"
    },
    {
      "inputs": [],
      "name": "pause",
      "outputs": [],
      "stateMutability": "nonpayable",
      "type": "function"
    },
    {
      "inputs": [],
      "name": "paused",
      "outputs": [
        {
          "internalType": "bool",
          "name": "",
          "type": "bool"
        }
      ],
      "stateMutability": "view",
      "type": "function"
    },
    {
      "inputs": [],
      "name": "platformWallet",
      "outputs": [
        {
          "internalType": "address",
          "name": "",
          "type": "address"
        }
      ],
      "stateMutability": "view",
      "type": "function"
    },
    {
      "inputs": [
        {
          "internalType": "address",
          "name": "creator",
          "type": "address"
        },
        {
          "internalType": "address",
          "name": "zoraContract",
          "type": "address"
        },
        {
          "internalType": "bytes32",
          "name": "txHash",
          "type": "bytes32"
        }
      ],
      "name": "register",
      "outputs": [],
      "stateMutability": "nonpayable",
      "type": "function"
    },
    {
      "inputs": [
        {
          "internalType": "address",
          "name": "",
          "type": "address"
        }
      ],
      "name": "registry",
      "outputs": [
        {
          "internalType": "address",
          "name": "creator",
          "type": "address"
        },
        {
          "internalType": "address",
          "name": "zoraContract",
          "type": "address"
        },
        {
          "internalType": "uint256",
          "name": "timestamp",
          "type": "uint256"
        },
        {
          "internalType": "bytes32",
          "name": "txHash",
          "type": "bytes32"
        }
      ],
      "stateMutability": "view",
      "type": "function"
    },
    {
      "inputs": [],
      "name": "totalCoins",
      "outputs": [
        {
          "internalType": "uint256",
          "name": "",
          "type": "uint256"
        }
      ],
      "stateMutability": "view",
      "type": "function"
    },
    {
      "inputs": [],
      "name": "unpause",
      "outputs": [],
      "stateMutability": "nonpayable",
      "type": "function"
    },
    {
      "inputs": [
        {
          "internalType": "address",
          "name": "newWallet",
          "type": "address"
        }
      ],
      "name": "updatePlatformWallet",
      "outputs": [],
      "stateMutability": "nonpayable",
      "type": "function"
    },
    {
      "inputs": [
        {
          "internalType": "address",
          "name": "",
          "type": "address"
        },
        {
          "internalType": "uint256",
          "name": "",
          "type": "uint256"
        }
      ],
      "name": "userCoins",
      "outputs": [
        {
          "internalType": "address",
          "name": "",
          "type": "address"
        }
      ],
      "stateMutability": "view",
      "type": "function"
    }
  ],
  "bytecode": "0x6080604052348015600e575f5ffd5b50604051611045380380611045833981016040819052602b9160a7565b6001600160a01b03811660845760405162461bcd60e51b815260206004820152601760248201527f496e76616c696420706c6174666f726d2077616c6c6574000000000000000000604482015260640160405180910390fd5b5f80546001600160a01b0319166001600160a01b039290921691909117905560d2565b5f6020828403121560b6575f5ffd5b81516001600160a01b038116811460cb575f5ffd5b9392505050565b610f66806100df5f395ff3fe608060405234801561000f575f5ffd5b50600436106100f0575f3560e01c80637bd8f49c11610093578063be1e8a2a11610063578063be1e8a2a146102e7578063c3c5a54714610312578063e1a864a41461033f578063fa2af9da14610352575f5ffd5b80637bd8f49c146102845780638456cb59146102a457806387555c9f146102ac578063ada4ef30146102d4575f5ffd5b80633f4ba83a116100ce5780633f4ba83a146101825780635c975abb1461018c57806369b15fce146101af57806372731062146101c2575f5ffd5b8063038defd7146100f457806331e8e39d1461016757806332454dbb14610179575b5f5ffd5b610137610102366004610d17565b600160208190525f918252604090912080549181015460028201546003909201546001600160a01b0393841693909116919084565b604080516001600160a01b0395861681529490931660208501529183015260608201526080015b60405180910390f35b6003545b60405190815260200161015e565b61016b60035481565b61018a610364565b005b5f5461019f90600160a01b900460ff1681565b604051901515815260200161015e565b61018a6101bd366004610d37565b6103d8565b6102436101d0366004610d17565b604080516080810182525f808252602082018190529181018290526060810191909152506001600160a01b039081165f9081526001602081815260409283902083516080810185528154861681529281015490941690820152600283015491810191909152600390910154606082015290565b60405161015e919081516001600160a01b03908116825260208084015190911690820152604080830151908201526060918201519181019190915260800190565b610297610292366004610d17565b6106d5565b60405161015e9190610d70565b61018a610748565b61016b6102ba366004610d17565b6001600160a01b03165f9081526002602052604090205490565b61018a6102e2366004610d17565b6107b3565b6102fa6102f5366004610dbb565b610876565b6040516001600160a01b03909116815260200161015e565b61019f610320366004610d17565b6001600160a01b039081165f9081526001602052604090205416151590565b61018a61034d366004610e2b565b6108aa565b5f546102fa906001600160a01b031681565b5f546001600160a01b031633146103965760405162461bcd60e51b815260040161038d90610eca565b60405180910390fd5b5f805460ff60a01b191690556040513381527f5db9ee0a495bf2e6ff9c91a7834c1ba4fdd244a5e8aa4e537bd38aeae4b073aa906020015b60405180910390a1565b5f546001600160a01b031633146104015760405162461bcd60e51b815260040161038d90610eca565b5f54600160a01b900460ff161561044f5760405162461bcd60e51b815260206004820152601260248201527110dbdb9d1c9858dd081a5cc81c185d5cd95960721b604482015260640161038d565b6001600160a01b0383166104a55760405162461bcd60e51b815260206004820152601760248201527f496e76616c69642063726561746f722061646472657373000000000000000000604482015260640161038d565b6001600160a01b0382166104fb5760405162461bcd60e51b815260206004820152601860248201527f496e76616c696420636f6e747261637420616464726573730000000000000000604482015260640161038d565b813b61053a5760405162461bcd60e51b815260206004820152600e60248201526d139bdd08184818dbdb9d1c9858dd60921b604482015260640161038d565b6001600160a01b038281165f9081526001602052604090205416156105965760405162461bcd60e51b8152602060048201526012602482015271105b1c9958591e481c9959da5cdd195c995960721b604482015260640161038d565b604080516080810182526001600160a01b03808616808352858216602080850182815242868801908152606087018981525f85815260018086528a822099518a54908a166001600160a01b0319918216178b5594518a8201805491909a169086161790985591516002808a019190915590516003909801979097558481529582528686208054958601815586528186209094018054909416909117909255825260049052205460ff16610666576001600160a01b0383165f908152600460205260409020805460ff191660011790555b60038054905f61067583610ef8565b9190505550816001600160a01b0316836001600160a01b03167f78824ccfe90dc08464c188dacb5df6e135f9dbfe4c057419de87ae6359bceb6542846040516106c8929190918252602082015260400190565b60405180910390a3505050565b6001600160a01b0381165f9081526002602090815260409182902080548351818402810184019094528084526060939283018282801561073c57602002820191905f5260205f20905b81546001600160a01b0316815260019091019060200180831161071e575b50505050509050919050565b5f546001600160a01b031633146107715760405162461bcd60e51b815260040161038d90610eca565b5f805460ff60a01b1916600160a01b1790556040513381527f62e78cea01bee320cd4e420270b5ea74000d11b0c9f74754ebdbfc544b05a258906020016103ce565b5f546001600160a01b031633146107dc5760405162461bcd60e51b815260040161038d90610eca565b6001600160a01b0381166108275760405162461bcd60e51b8152602060048201526012602482015271125b9d985b1a59081b995dc81dd85b1b195d60721b604482015260640161038d565b5f80546001600160a01b038381166001600160a01b0319831681178455604051919092169283917ff84f6b525c89a18c80bbbc0c62a7eb5390956d6b8432ab067b49963a98f8c38f9190a35050565b6002602052815f5260405f20818154811061088f575f80fd5b5f918252602090912001546001600160a01b03169150829050565b5f546001600160a01b031633146108d35760405162461bcd60e51b815260040161038d90610eca565b5f54600160a01b900460ff16156109215760405162461bcd60e51b815260206004820152601260248201527110dbdb9d1c9858dd081a5cc81c185d5cd95960721b604482015260640161038d565b848314801561092f57508481145b6109735760405162461bcd60e51b8152602060048201526015602482015274082e4e4c2f240d8cadccee8d040dad2e6dac2e8c6d605b1b604482015260640161038d565b846109af5760405162461bcd60e51b815260206004820152600c60248201526b456d7074792061727261797360a01b604482015260640161038d565b60648511156109f25760405162461bcd60e51b815260206004820152600f60248201526e426174636820746f6f206c6172676560881b604482015260640161038d565b5f805b86811015610cba575f888883818110610a1057610a10610f1c565b9050602002016020810190610a259190610d17565b90505f878784818110610a3a57610a3a610f1c565b9050602002016020810190610a4f9190610d17565b90505f868685818110610a6457610a64610f1c565b60200291909101359150506001600160a01b038316610ab75760405162461bcd60e51b815260206004820152600f60248201526e24b73b30b634b21031b932b0ba37b960891b604482015260640161038d565b6001600160a01b038216610b005760405162461bcd60e51b815260206004820152601060248201526f125b9d985b1a590818dbdb9d1c9858dd60821b604482015260640161038d565b813b610b3f5760405162461bcd60e51b815260206004820152600e60248201526d139bdd08184818dbdb9d1c9858dd60921b604482015260640161038d565b6001600160a01b038281165f908152600160205260409020541615610b6657505050610cb2565b604080516080810182526001600160a01b03808616808352858216602080850182815242868801908152606087018981525f85815260018086528a822099518a54908a166001600160a01b0319918216178b5594518a8201805491909a169086161790985591516002808a019190915590516003909801979097558481529582528686208054958601815586528186209094018054909416909117909255825260049052205460ff16610c36576001600160a01b0383165f908152600460205260409020805460ff191660011790555b60038054905f610c4583610ef8565b91905055508480610c5590610ef8565b955050816001600160a01b0316836001600160a01b03167f78824ccfe90dc08464c188dacb5df6e135f9dbfe4c057419de87ae6359bceb654284604051610ca6929190918252602082015260400190565b60405180910390a35050505b6001016109f5565b50604080518281524260208201527f5147e56f82dd95b39d986545d47fcc2f02ebe9938671c93e73ec1f28404cef7d910160405180910390a150505050505050565b80356001600160a01b0381168114610d12575f5ffd5b919050565b5f60208284031215610d27575f5ffd5b610d3082610cfc565b9392505050565b5f5f5f60608486031215610d49575f5ffd5b610d5284610cfc565b9250610d6060208501610cfc565b9150604084013590509250925092565b602080825282518282018190525f918401906040840190835b81811015610db05783516001600160a01b0316835260209384019390920191600101610d89565b509095945050505050565b5f5f60408385031215610dcc575f5ffd5b610dd583610cfc565b946020939093013593505050565b5f5f83601f840112610df3575f5ffd5b50813567ffffffffffffffff811115610e0a575f5ffd5b6020830191508360208260051b8501011115610e24575f5ffd5b9250929050565b5f5f5f5f5f5f60608789031215610e40575f5ffd5b863567ffffffffffffffff811115610e56575f5ffd5b610e6289828a01610de3565b909750955050602087013567ffffffffffffffff811115610e81575f5ffd5b610e8d89828a01610de3565b909550935050604087013567ffffffffffffffff811115610eac575f5ffd5b610eb889828a01610de3565b979a9699509497509295939492505050565b60208082526014908201527313db9b1e481c1b185d199bdc9b481dd85b1b195d60621b604082015260600190565b5f60018201610f1557634e487b7160e01b5f52601160045260245ffd5b5060010190565b634e487b7160e01b5f52603260045260245ffdfea264697066735822122009286794a7abd990fd8954194e11b5e23a5726dac0865a650c67b9dd5568329764736f6c634300081e0033",
  "linkReferences": {},
  "deployedLinkReferences": {}
}