{
  "_format": "hh-sol-artifact-1",
  "contractName": "CoinRegistry",
  "sourceName": "contracts/CoinRegistry.sol",
  "abi": [
    {
      "inputs": [
        {
          "internalType": "address",
          "name": "_platformWallet",
          "type": "address"
        }
      ],
      "stateMutability": "nonpayable",
      "type": "constructor"
    },
    {
      "anonymous": false,
      "inputs": [
        {
          "indexed": false,
          "internalType": "uint256",
          "name": "count",
          "type": "uint256"
        },
        {
          "indexed": false,
          "internalType": "uint256",
          "name": "timestamp",
          "type": "uint256"
        }
      ],
      "name": "BatchRegistered",
      "type": "event"
    },
    {
      "anonymous": false,
      "inputs": [
        {
          "indexed": true,
          "internalType": "address",
          "name": "creator",
          "type": "address"
        },
        {
          "indexed": true,
          "internalType": "address",
          "name": "zoraContract",
          "type": "address"
        },
        {
          "indexed": false,
          "internalType": "uint256",
          "name": "timestamp",
          "type": "uint256"
        },
        {
          "indexed": false,
          "internalType": "bytes32",
          "name": "txHash",
          "type": "bytes32"
        }
      ],
      "name": "CoinRegistered",
      "type": "event"
    },
    {
      "anonymous": false,
      "inputs": [
        {
          "indexed": false,
          "internalType": "address",
          "name": "account",
          "type": "address"
        }
      ],
      "name": "Paused",
      "type": "event"
    },
    {
      "anonymous": false,
      "inputs": [
        {
          "indexed": true,
          "internalType": "address",
          "name": "oldWallet",
          "type": "address"
        },
        {
          "indexed": true,
          "internalType": "address",
          "name": "newWallet",
          "type": "address"
        }
      ],
      "name": "PlatformWalletUpdated",
      "type": "event"
    },
    {
      "anonymous": false,
      "inputs": [
        {
          "indexed": false,
          "internalType": "address",
          "name": "account",
          "type": "address"
        }
      ],
      "name": "Unpaused",
      "type": "event"
    },
    {
      "inputs": [
        {
          "internalType": "address[]",
          "name": "creators",
          "type": "address[]"
        },
        {
          "internalType": "address[]",
          "name": "zoraContracts",
          "type": "address[]"
        },
        {
          "internalType": "bytes32[]",
          "name": "txHashes",
          "type": "bytes32[]"
        },
        {
          "internalType": "uint256[]",
          "name": "createdAtTimestamps",
          "type": "uint256[]"
        }
      ],
      "name": "batchRegister",
      "outputs": [],
      "stateMutability": "nonpayable",
      "type": "function"
    },
    {
      "inputs": [
        {
          "internalType": "address",
          "name": "zoraContract",
          "type": "address"
        }
      ],
      "name": "getRegistration",
      "outputs": [
        {
          "components": [
            {
              "internalType": "address",
              "name": "creator",
              "type": "address"
            },
            {
              "internalType": "address",
              "name": "zoraContract",
              "type": "address"
            },
            {
              "internalType": "uint256",
              "name": "timestamp",
              "type": "uint256"
            },
            {
              "internalType": "bytes32",
              "name": "txHash",
              "type": "bytes32"
            }
          ],
          "internalType": "struct CoinRegistry.CoinRegistration",
          "name": "",
          "type": "tuple"
        }
      ],
      "stateMutability": "view",
      "type": "function"
    },
    {
      "inputs": [],
      "name": "getTotalCreators",
      "outputs": [
        {
          "internalType": "uint256",
          "name": "",
          "type": "uint256"
        }
      ],
      "stateMutability": "view",
      "type": "function"
    },
    {
      "inputs": [
        {
          "internalType": "address",
          "name": "creator",
          "type": "address"
        }
      ],
      "name": "getUserCoinCount",
      "outputs": [
        {
          "internalType": "uint256",
          "name": "",
          "type": "uint256"
        }
      ],
      "stateMutability": "view",
      "type": "function"
    },
    {
      "inputs": [
        {
          "internalType": "address",
          "name": "creator",
          "type": "address"
        }
      ],
      "name": "getUserCoins",
      "outputs": [
        {
          "internalType": "address[]",
          "name": "",
          "type": "address[]"
        }
      ],
      "stateMutability": "view",
      "type": "function"
    },
    {
      "inputs": [
        {
          "internalType": "address",
          "name": "zoraContract",
          "type": "address"
        }
      ],
      "name": "isRegistered",
      "outputs": [
        {
          "internalType": "bool",
          "name": "",
          "type": "bool"
        }
      ],
      "stateMutability": "view",
      "type": "function"
    },
    {
      "inputs": [],
      "name": "pause",
      "outputs": [],
      "stateMutability": "nonpayable",
      "type": "function"
    },
    {
      "inputs": [],
      "name": "paused",
      "outputs": [
        {
          "internalType": "bool",
          "name": "",
          "type": "bool"
        }
      ],
      "stateMutability": "view",
      "type": "function"
    },
    {
      "inputs": [],
      "name": "platformWallet",
      "outputs": [
        {
          "internalType": "address",
          "name": "",
          "type": "address"
        }
      ],
      "stateMutability": "view",
      "type": "function"
    },
    {
      "inputs": [
        {
          "internalType": "address",
          "name": "creator",
          "type": "address"
        },
        {
          "internalType": "address",
          "name": "zoraContract",
          "type": "address"
        },
        {
          "internalType": "bytes32",
          "name": "txHash",
          "type": "bytes32"
        }
      ],
      "name": "register",
      "outputs": [],
      "stateMutability": "nonpayable",
      "type": "function"
    },
    {
      "inputs": [
        {
          "internalType": "address",
          "name": "",
          "type": "address"
        }
      ],
      "name": "registry",
      "outputs": [
        {
          "internalType": "address",
          "name": "creator",
          "type": "address"
        },
        {
          "internalType": "address",
          "name": "zoraContract",
          "type": "address"
        },
        {
          "internalType": "uint256",
          "name": "timestamp",
          "type": "uint256"
        },
        {
          "internalType": "bytes32",
          "name": "txHash",
          "type": "bytes32"
        }
      ],
      "stateMutability": "view",
      "type": "function"
    },
    {
      "inputs": [],
      "name": "totalCoins",
      "outputs": [
        {
          "internalType": "uint256",
          "name": "",
          "type": "uint256"
        }
      ],
      "stateMutability": "view",
      "type": "function"
    },
    {
      "inputs": [],
      "name": "unpause",
      "outputs": [],
      "stateMutability": "nonpayable",
      "type": "function"
    },
    {
      "inputs": [
        {
          "internalType": "address",
          "name": "newWallet",
          "type": "address"
        }
      ],
      "name": "updatePlatformWallet",
      "outputs": [],
      "stateMutability": "nonpayable",
      "type": "function"
    },
    {
      "inputs": [
        {
          "internalType": "address",
          "name": "",
          "type": "address"
        },
        {
          "internalType": "uint256",
          "name": "",
          "type": "uint256"
        }
      ],
      "name": "userCoins",
      "outputs": [
        {
          "internalType": "address",
          "name": "",
          "type": "address"
        }
      ],
      "stateMutability": "view",
      "type": "function"
    }
  ],
  "bytecode": "0x6080604052348015600e575f5ffd5b506040516110f93803806110f9833981016040819052602b9160a7565b6001600160a01b03811660845760405162461bcd60e51b815260206004820152601760248201527f496e76616c696420706c6174666f726d2077616c6c6574000000000000000000604482015260640160405180910390fd5b5f80546001600160a01b0319166001600160a01b039290921691909117905560d2565b5f6020828403121560b6575f5ffd5b81516001600160a01b038116811460cb575f5ffd5b9392505050565b61101a806100df5f395ff3fe608060405234801561000f575f5ffd5b50600436106100f0575f3560e01c80637273106211610093578063ada4ef3011610063578063ada4ef30146102e7578063be1e8a2a146102fa578063c3c5a54714610325578063fa2af9da14610352575f5ffd5b806372731062146101d55780637bd8f49c146102975780638456cb59146102b757806387555c9f146102bf575f5ffd5b80633f4ba83a116100ce5780633f4ba83a146101825780635c975abb1461018c57806369b15fce146101af5780636df26d9a146101c2575f5ffd5b8063038defd7146100f457806331e8e39d1461016757806332454dbb14610179575b5f5ffd5b610137610102366004610d9c565b600160208190525f918252604090912080549181015460028201546003909201546001600160a01b0393841693909116919084565b604080516001600160a01b0395861681529490931660208501529183015260608201526080015b60405180910390f35b6003545b60405190815260200161015e565b61016b60035481565b61018a610364565b005b5f5461019f90600160a01b900460ff1681565b604051901515815260200161015e565b61018a6101bd366004610dbc565b6103d8565b61018a6101d0366004610e3d565b6106d5565b6102566101e3366004610d9c565b604080516080810182525f808252602082018190529181018290526060810191909152506001600160a01b039081165f9081526001602081815260409283902083516080810185528154861681529281015490941690820152600283015491810191909152600390910154606082015290565b60405161015e919081516001600160a01b03908116825260208084015190911690820152604080830151908201526060918201519181019190915260800190565b6102aa6102a5366004610d9c565b610bac565b60405161015e9190610f0b565b61018a610c1f565b61016b6102cd366004610d9c565b6001600160a01b03165f9081526002602052604090205490565b61018a6102f5366004610d9c565b610c8a565b61030d610308366004610f56565b610d4d565b6040516001600160a01b03909116815260200161015e565b61019f610333366004610d9c565b6001600160a01b039081165f9081526001602052604090205416151590565b5f5461030d906001600160a01b031681565b5f546001600160a01b031633146103965760405162461bcd60e51b815260040161038d90610f7e565b60405180910390fd5b5f805460ff60a01b191690556040513381527f5db9ee0a495bf2e6ff9c91a7834c1ba4fdd244a5e8aa4e537bd38aeae4b073aa906020015b60405180910390a1565b5f546001600160a01b031633146104015760405162461bcd60e51b815260040161038d90610f7e565b5f54600160a01b900460ff161561044f5760405162461bcd60e51b815260206004820152601260248201527110dbdb9d1c9858dd081a5cc81c185d5cd95960721b604482015260640161038d565b6001600160a01b0383166104a55760405162461bcd60e51b815260206004820152601760248201527f496e76616c69642063726561746f722061646472657373000000000000000000604482015260640161038d565b6001600160a01b0382166104fb5760405162461bcd60e51b815260206004820152601860248201527f496e76616c696420636f6e747261637420616464726573730000000000000000604482015260640161038d565b813b61053a5760405162461bcd60e51b815260206004820152600e60248201526d139bdd08184818dbdb9d1c9858dd60921b604482015260640161038d565b6001600160a01b038281165f9081526001602052604090205416156105965760405162461bcd60e51b8152602060048201526012602482015271105b1c9958591e481c9959da5cdd195c995960721b604482015260640161038d565b604080516080810182526001600160a01b03808616808352858216602080850182815242868801908152606087018981525f85815260018086528a822099518a54908a166001600160a01b0319918216178b5594518a8201805491909a169086161790985591516002808a019190915590516003909801979097558481529582528686208054958601815586528186209094018054909416909117909255825260049052205460ff16610666576001600160a01b0383165f908152600460205260409020805460ff191660011790555b60038054905f61067583610fac565b9190505550816001600160a01b0316836001600160a01b03167f78824ccfe90dc08464c188dacb5df6e135f9dbfe4c057419de87ae6359bceb6542846040516106c8929190918252602082015260400190565b60405180910390a3505050565b5f546001600160a01b031633146106fe5760405162461bcd60e51b815260040161038d90610f7e565b5f54600160a01b900460ff161561074c5760405162461bcd60e51b815260206004820152601260248201527110dbdb9d1c9858dd081a5cc81c185d5cd95960721b604482015260640161038d565b868514801561075a57508683145b801561076557508681145b6107a95760405162461bcd60e51b8152602060048201526015602482015274082e4e4c2f240d8cadccee8d040dad2e6dac2e8c6d605b1b604482015260640161038d565b866107e55760405162461bcd60e51b815260206004820152600c60248201526b456d7074792061727261797360a01b604482015260640161038d565b60648711156108285760405162461bcd60e51b815260206004820152600f60248201526e426174636820746f6f206c6172676560881b604482015260640161038d565b5f805b88811015610b68575f8a8a8381811061084657610846610fd0565b905060200201602081019061085b9190610d9c565b90505f89898481811061087057610870610fd0565b90506020020160208101906108859190610d9c565b90505f88888581811061089a5761089a610fd0565b9050602002013590505f8787868181106108b6576108b6610fd0565b60200291909101359150506001600160a01b0384166109095760405162461bcd60e51b815260206004820152600f60248201526e24b73b30b634b21031b932b0ba37b960891b604482015260640161038d565b6001600160a01b0383166109525760405162461bcd60e51b815260206004820152601060248201526f125b9d985b1a590818dbdb9d1c9858dd60821b604482015260640161038d565b823b6109915760405162461bcd60e51b815260206004820152600e60248201526d139bdd08184818dbdb9d1c9858dd60921b604482015260640161038d565b5f811180156109a05750428111155b6109ec5760405162461bcd60e51b815260206004820152601a60248201527f496e76616c6964206372656174696f6e2074696d657374616d70000000000000604482015260640161038d565b6001600160a01b038381165f908152600160205260409020541615610a145750505050610b60565b604080516080810182526001600160a01b038087168083528682166020808501828152858701888152606087018a81525f85815260018086528a822099518a54908a166001600160a01b0319918216178b5594518a8201805491909a169086161790985591516002808a019190915590516003909801979097558481529582528686208054958601815586528186209094018054909416909117909255825260049052205460ff16610ae3576001600160a01b0384165f908152600460205260409020805460ff191660011790555b60038054905f610af283610fac565b91905055508580610b0290610fac565b965050826001600160a01b0316846001600160a01b03167f78824ccfe90dc08464c188dacb5df6e135f9dbfe4c057419de87ae6359bceb658385604051610b53929190918252602082015260400190565b60405180910390a3505050505b60010161082b565b50604080518281524260208201527f5147e56f82dd95b39d986545d47fcc2f02ebe9938671c93e73ec1f28404cef7d910160405180910390a1505050505050505050565b6001600160a01b0381165f90815260026020908152604091829020805483518184028101840190945280845260609392830182828015610c1357602002820191905f5260205f20905b81546001600160a01b03168152600190910190602001808311610bf5575b50505050509050919050565b5f546001600160a01b03163314610c485760405162461bcd60e51b815260040161038d90610f7e565b5f805460ff60a01b1916600160a01b1790556040513381527f62e78cea01bee320cd4e420270b5ea74000d11b0c9f74754ebdbfc544b05a258906020016103ce565b5f546001600160a01b03163314610cb35760405162461bcd60e51b815260040161038d90610f7e565b6001600160a01b038116610cfe5760405162461bcd60e51b8152602060048201526012602482015271125b9d985b1a59081b995dc81dd85b1b195d60721b604482015260640161038d565b5f80546001600160a01b038381166001600160a01b0319831681178455604051919092169283917ff84f6b525c89a18c80bbbc0c62a7eb5390956d6b8432ab067b49963a98f8c38f9190a35050565b6002602052815f5260405f208181548110610d66575f80fd5b5f918252602090912001546001600160a01b03169150829050565b80356001600160a01b0381168114610d97575f5ffd5b919050565b5f60208284031215610dac575f5ffd5b610db582610d81565b9392505050565b5f5f5f60608486031215610dce575f5ffd5b610dd784610d81565b9250610de560208501610d81565b9150604084013590509250925092565b5f5f83601f840112610e05575f5ffd5b50813567ffffffffffffffff811115610e1c575f5ffd5b6020830191508360208260051b8501011115610e36575f5ffd5b9250929050565b5f5f5f5f5f5f5f5f6080898b031215610e54575f5ffd5b883567ffffffffffffffff811115610e6a575f5ffd5b610e768b828c01610df5565b909950975050602089013567ffffffffffffffff811115610e95575f5ffd5b610ea18b828c01610df5565b909750955050604089013567ffffffffffffffff811115610ec0575f5ffd5b610ecc8b828c01610df5565b909550935050606089013567ffffffffffffffff811115610eeb575f5ffd5b610ef78b828c01610df5565b999c989b5096995094979396929594505050565b602080825282518282018190525f918401906040840190835b81811015610f4b5783516001600160a01b0316835260209384019390920191600101610f24565b509095945050505050565b5f5f60408385031215610f67575f5ffd5b610f7083610d81565b946020939093013593505050565b60208082526014908201527313db9b1e481c1b185d199bdc9b481dd85b1b195d60621b604082015260600190565b5f60018201610fc957634e487b7160e01b5f52601160045260245ffd5b5060010190565b634e487b7160e01b5f52603260045260245ffdfea26469706673582212205a8dc09df15e8ed21d78eb5be25f459baea75f0a285a74bcab4fda27e5f0308b64736f6c634300081e0033",
  "linkReferences": {},
  "deployedLinkReferences": {}
}